{
	"FundMe.sol": {
		"FundMe": {
			"abi": [
				{
					"inputs": [],
					"stateMutability": "nonpayable",
					"type": "constructor"
				},
				{
					"inputs": [],
					"name": "NotOwner",
					"type": "error"
				},
				{
					"stateMutability": "payable",
					"type": "fallback"
				},
				{
					"inputs": [],
					"name": "MINIMUM_USD",
					"outputs": [
						{
							"internalType": "uint256",
							"name": "",
							"type": "uint256"
						}
					],
					"stateMutability": "view",
					"type": "function"
				},
				{
					"inputs": [
						{
							"internalType": "address",
							"name": "",
							"type": "address"
						}
					],
					"name": "addressToAmountFunded",
					"outputs": [
						{
							"internalType": "uint256",
							"name": "",
							"type": "uint256"
						}
					],
					"stateMutability": "view",
					"type": "function"
				},
				{
					"inputs": [],
					"name": "fund",
					"outputs": [],
					"stateMutability": "payable",
					"type": "function"
				},
				{
					"inputs": [
						{
							"internalType": "uint256",
							"name": "",
							"type": "uint256"
						}
					],
					"name": "funders",
					"outputs": [
						{
							"internalType": "address",
							"name": "",
							"type": "address"
						}
					],
					"stateMutability": "view",
					"type": "function"
				},
				{
					"inputs": [],
					"name": "i_owner",
					"outputs": [
						{
							"internalType": "address",
							"name": "",
							"type": "address"
						}
					],
					"stateMutability": "view",
					"type": "function"
				},
				{
					"inputs": [],
					"name": "withdraw",
					"outputs": [],
					"stateMutability": "nonpayable",
					"type": "function"
				},
				{
					"stateMutability": "payable",
					"type": "receive"
				}
			],
			"devdoc": {
				"kind": "dev",
				"methods": {},
				"version": 1
			},
			"evm": {
				"assembly": "    /* \"FundMe.sol\":136:1306  contract FundMe {... */\n  mstore(0x40, 0xa0)\n    /* \"FundMe.sol\":385:435  constructor(){... */\n  callvalue\n  dup1\n  iszero\n  tag_1\n  jumpi\n  0x00\n  dup1\n  revert\ntag_1:\n  pop\n    /* \"FundMe.sol\":418:428  msg.sender */\n  caller\n    /* \"FundMe.sol\":408:428  i_owner = msg.sender */\n  0xffffffffffffffffffffffffffffffffffffffff\n  and\n  0x80\n  dup2\n  0xffffffffffffffffffffffffffffffffffffffff\n  and\n  dup2\n  mstore\n  pop\n  pop\n    /* \"FundMe.sol\":136:1306  contract FundMe {... */\n  mload(0x80)\n  codecopy(0x00, dataOffset(sub_0), dataSize(sub_0))\n  0x00\n  assignImmutable(\"0xb9aa4ff60d3edb7fbc3b53bd780c9274ed80a5ba1a237d38b011edab2b031b4a\")\n  return(0x00, dataSize(sub_0))\nstop\n\nsub_0: assembly {\n        /* \"FundMe.sol\":136:1306  contract FundMe {... */\n      mstore(0x40, 0x80)\n      jumpi(tag_1, lt(calldatasize, 0x04))\n      shr(0xe0, calldataload(0x00))\n      dup1\n      0x3ccfd60b\n      eq\n      tag_3\n      jumpi\n      dup1\n      0x3e47d6f3\n      eq\n      tag_4\n      jumpi\n      dup1\n      0x6b69a592\n      eq\n      tag_5\n      jumpi\n      dup1\n      0xb60d4288\n      eq\n      tag_6\n      jumpi\n      dup1\n      0xdba6335f\n      eq\n      tag_7\n      jumpi\n      dup1\n      0xdc0d3dff\n      eq\n      tag_8\n      jumpi\n      jump(tag_2)\n    tag_1:\n      jumpi(tag_2, calldatasize)\n        /* \"FundMe.sol\":1233:1239  fund() */\n      tag_11\n        /* \"FundMe.sol\":1233:1237  fund */\n      tag_12\n        /* \"FundMe.sol\":1233:1239  fund() */\n      jump\t// in\n    tag_11:\n        /* \"FundMe.sol\":136:1306  contract FundMe {... */\n      stop\n    tag_2:\n        /* \"FundMe.sol\":1290:1296  fund() */\n      tag_15\n        /* \"FundMe.sol\":1290:1294  fund */\n      tag_12\n        /* \"FundMe.sol\":1290:1296  fund() */\n      jump\t// in\n    tag_15:\n        /* \"FundMe.sol\":136:1306  contract FundMe {... */\n      stop\n        /* \"FundMe.sol\":653:1024  function withdraw() public onlyOwner{... */\n    tag_3:\n      callvalue\n      dup1\n      iszero\n      tag_16\n      jumpi\n      0x00\n      dup1\n      revert\n    tag_16:\n      pop\n      tag_17\n      tag_18\n      jump\t// in\n    tag_17:\n      stop\n        /* \"FundMe.sol\":283:339  mapping(address => uint256) public addressToAmountFunded */\n    tag_4:\n      callvalue\n      dup1\n      iszero\n      tag_19\n      jumpi\n      0x00\n      dup1\n      revert\n    tag_19:\n      pop\n      tag_20\n      0x04\n      dup1\n      calldatasize\n      sub\n      dup2\n      add\n      swap1\n      tag_21\n      swap2\n      swap1\n      tag_22\n      jump\t// in\n    tag_21:\n      tag_23\n      jump\t// in\n    tag_20:\n      mload(0x40)\n      tag_24\n      swap2\n      swap1\n      tag_25\n      jump\t// in\n    tag_24:\n      mload(0x40)\n      dup1\n      swap2\n      sub\n      swap1\n      return\n        /* \"FundMe.sol\":205:247  uint256 public constant MINIMUM_USD = 5e18 */\n    tag_5:\n      callvalue\n      dup1\n      iszero\n      tag_26\n      jumpi\n      0x00\n      dup1\n      revert\n    tag_26:\n      pop\n      tag_27\n      tag_28\n      jump\t// in\n    tag_27:\n      mload(0x40)\n      tag_29\n      swap2\n      swap1\n      tag_25\n      jump\t// in\n    tag_29:\n      mload(0x40)\n      dup1\n      swap2\n      sub\n      swap1\n      return\n        /* \"FundMe.sol\":441:647  function fund() public payable{... */\n    tag_6:\n      tag_30\n      tag_12\n      jump\t// in\n    tag_30:\n      stop\n        /* \"FundMe.sol\":346:378  address public immutable i_owner */\n    tag_7:\n      callvalue\n      dup1\n      iszero\n      tag_31\n      jumpi\n      0x00\n      dup1\n      revert\n    tag_31:\n      pop\n      tag_32\n      tag_33\n      jump\t// in\n    tag_32:\n      mload(0x40)\n      tag_34\n      swap2\n      swap1\n      tag_35\n      jump\t// in\n    tag_34:\n      mload(0x40)\n      dup1\n      swap2\n      sub\n      swap1\n      return\n        /* \"FundMe.sol\":253:277  address[] public funders */\n    tag_8:\n      callvalue\n      dup1\n      iszero\n      tag_36\n      jumpi\n      0x00\n      dup1\n      revert\n    tag_36:\n      pop\n      tag_37\n      0x04\n      dup1\n      calldatasize\n      sub\n      dup2\n      add\n      swap1\n      tag_38\n      swap2\n      swap1\n      tag_39\n      jump\t// in\n    tag_38:\n      tag_40\n      jump\t// in\n    tag_37:\n      mload(0x40)\n      tag_41\n      swap2\n      swap1\n      tag_35\n      jump\t// in\n    tag_41:\n      mload(0x40)\n      dup1\n      swap2\n      sub\n      swap1\n      return\n        /* \"FundMe.sol\":441:647  function fund() public payable{... */\n    tag_12:\n        /* \"FundMe.sol\":243:247  5e18 */\n      0x4563918244f40000\n        /* \"FundMe.sol\":489:518  msg.value.getConversionRate() */\n      tag_43\n        /* \"FundMe.sol\":489:498  msg.value */\n      callvalue\n        /* \"FundMe.sol\":489:516  msg.value.getConversionRate */\n      tag_44\n        /* \"FundMe.sol\":489:518  msg.value.getConversionRate() */\n      jump\t// in\n    tag_43:\n        /* \"FundMe.sol\":489:532  msg.value.getConversionRate() > MINIMUM_USD */\n      gt\n        /* \"FundMe.sol\":481:550  require(msg.value.getConversionRate() > MINIMUM_USD, \"You need more\") */\n      tag_45\n      jumpi\n      mload(0x40)\n      0x08c379a000000000000000000000000000000000000000000000000000000000\n      dup2\n      mstore\n      0x04\n      add\n      tag_46\n      swap1\n      tag_47\n      jump\t// in\n    tag_46:\n      mload(0x40)\n      dup1\n      swap2\n      sub\n      swap1\n      revert\n    tag_45:\n        /* \"FundMe.sol\":560:567  funders */\n      0x00\n        /* \"FundMe.sol\":573:583  msg.sender */\n      caller\n        /* \"FundMe.sol\":560:584  funders.push(msg.sender) */\n      swap1\n      dup1\n      0x01\n      dup2\n      sload\n      add\n      dup1\n      dup3\n      sstore\n      dup1\n      swap2\n      pop\n      pop\n      0x01\n      swap1\n      sub\n      swap1\n      0x00\n      mstore\n      keccak256(0x00, 0x20)\n      add\n      0x00\n      swap1\n      swap2\n      swap1\n      swap2\n      swap1\n      swap2\n      0x0100\n      exp\n      dup2\n      sload\n      dup2\n      0xffffffffffffffffffffffffffffffffffffffff\n      mul\n      not\n      and\n      swap1\n      dup4\n      0xffffffffffffffffffffffffffffffffffffffff\n      and\n      mul\n      or\n      swap1\n      sstore\n      pop\n        /* \"FundMe.sol\":631:640  msg.value */\n      callvalue\n        /* \"FundMe.sol\":594:615  addressToAmountFunded */\n      0x01\n        /* \"FundMe.sol\":594:627  addressToAmountFunded[msg.sender] */\n      0x00\n        /* \"FundMe.sol\":616:626  msg.sender */\n      caller\n        /* \"FundMe.sol\":594:627  addressToAmountFunded[msg.sender] */\n      0xffffffffffffffffffffffffffffffffffffffff\n      and\n      0xffffffffffffffffffffffffffffffffffffffff\n      and\n      dup2\n      mstore\n      0x20\n      add\n      swap1\n      dup2\n      mstore\n      0x20\n      add\n      0x00\n      keccak256\n      0x00\n        /* \"FundMe.sol\":594:640  addressToAmountFunded[msg.sender] += msg.value */\n      dup3\n      dup3\n      sload\n      tag_49\n      swap2\n      swap1\n      tag_50\n      jump\t// in\n    tag_49:\n      swap3\n      pop\n      pop\n      dup2\n      swap1\n      sstore\n      pop\n        /* \"FundMe.sol\":441:647  function fund() public payable{... */\n      jump\t// out\n        /* \"FundMe.sol\":653:1024  function withdraw() public onlyOwner{... */\n    tag_18:\n        /* \"FundMe.sol\":1145:1152  i_owner */\n      immutable(\"0xb9aa4ff60d3edb7fbc3b53bd780c9274ed80a5ba1a237d38b011edab2b031b4a\")\n        /* \"FundMe.sol\":1131:1152  msg.sender != i_owner */\n      0xffffffffffffffffffffffffffffffffffffffff\n      and\n        /* \"FundMe.sol\":1131:1141  msg.sender */\n      caller\n        /* \"FundMe.sol\":1131:1152  msg.sender != i_owner */\n      0xffffffffffffffffffffffffffffffffffffffff\n      and\n      eq\n        /* \"FundMe.sol\":1128:1174  if(msg.sender != i_owner) {revert NotOwner();} */\n      tag_52\n      jumpi\n        /* \"FundMe.sol\":1162:1172  NotOwner() */\n      mload(0x40)\n      0x30cd747100000000000000000000000000000000000000000000000000000000\n      dup2\n      mstore\n      0x04\n      add\n      mload(0x40)\n      dup1\n      swap2\n      sub\n      swap1\n      revert\n        /* \"FundMe.sol\":1128:1174  if(msg.sender != i_owner) {revert NotOwner();} */\n    tag_52:\n        /* \"FundMe.sol\":703:712  uint256 i */\n      0x00\n        /* \"FundMe.sol\":699:841  for(uint256 i = 0; i < funders.length; i++){... */\n    tag_54:\n        /* \"FundMe.sol\":722:729  funders */\n      0x00\n        /* \"FundMe.sol\":722:736  funders.length */\n      dup1\n      sload\n      swap1\n      pop\n        /* \"FundMe.sol\":718:719  i */\n      dup2\n        /* \"FundMe.sol\":718:736  i < funders.length */\n      lt\n        /* \"FundMe.sol\":699:841  for(uint256 i = 0; i < funders.length; i++){... */\n      iszero\n      tag_55\n      jumpi\n        /* \"FundMe.sol\":756:770  address funder */\n      0x00\n        /* \"FundMe.sol\":773:780  funders */\n      dup1\n        /* \"FundMe.sol\":781:782  i */\n      dup3\n        /* \"FundMe.sol\":773:783  funders[i] */\n      dup2\n      sload\n      dup2\n      lt\n      tag_57\n      jumpi\n      tag_58\n      tag_59\n      jump\t// in\n    tag_58:\n    tag_57:\n      swap1\n      0x00\n      mstore\n      keccak256(0x00, 0x20)\n      add\n      0x00\n      swap1\n      sload\n      swap1\n      0x0100\n      exp\n      swap1\n      div\n      0xffffffffffffffffffffffffffffffffffffffff\n      and\n        /* \"FundMe.sol\":756:783  address funder = funders[i] */\n      swap1\n      pop\n        /* \"FundMe.sol\":829:830  0 */\n      0x00\n        /* \"FundMe.sol\":797:818  addressToAmountFunded */\n      0x01\n        /* \"FundMe.sol\":797:826  addressToAmountFunded[funder] */\n      0x00\n        /* \"FundMe.sol\":819:825  funder */\n      dup4\n        /* \"FundMe.sol\":797:826  addressToAmountFunded[funder] */\n      0xffffffffffffffffffffffffffffffffffffffff\n      and\n      0xffffffffffffffffffffffffffffffffffffffff\n      and\n      dup2\n      mstore\n      0x20\n      add\n      swap1\n      dup2\n      mstore\n      0x20\n      add\n      0x00\n      keccak256\n        /* \"FundMe.sol\":797:830  addressToAmountFunded[funder] = 0 */\n      dup2\n      swap1\n      sstore\n      pop\n        /* \"FundMe.sol\":742:841  {... */\n      pop\n        /* \"FundMe.sol\":738:741  i++ */\n      dup1\n      dup1\n      0x01\n      add\n      swap2\n      pop\n      pop\n        /* \"FundMe.sol\":699:841  for(uint256 i = 0; i < funders.length; i++){... */\n      jump(tag_54)\n    tag_55:\n      pop\n        /* \"FundMe.sol\":874:875  0 */\n      0x00\n        /* \"FundMe.sol\":860:876  new address[](0) */\n      0xffffffffffffffff\n      dup2\n      gt\n      iszero\n      tag_61\n      jumpi\n      tag_62\n      tag_63\n      jump\t// in\n    tag_62:\n    tag_61:\n      mload(0x40)\n      swap1\n      dup1\n      dup3\n      mstore\n      dup1\n      0x20\n      mul\n      0x20\n      add\n      dup3\n      add\n      0x40\n      mstore\n      dup1\n      iszero\n      tag_64\n      jumpi\n      dup2\n      0x20\n      add\n      0x20\n      dup3\n      mul\n      dup1\n      calldatasize\n      dup4\n      calldatacopy\n      dup1\n      dup3\n      add\n      swap2\n      pop\n      pop\n      swap1\n      pop\n    tag_64:\n      pop\n        /* \"FundMe.sol\":850:857  funders */\n      0x00\n        /* \"FundMe.sol\":850:876  funders = new address[](0) */\n      swap1\n      dup1\n      mload\n      swap1\n      0x20\n      add\n      swap1\n      tag_65\n      swap3\n      swap2\n      swap1\n      tag_66\n      jump\t// in\n    tag_65:\n      pop\n        /* \"FundMe.sol\":887:903  bool callSuccess */\n      0x00\n        /* \"FundMe.sol\":916:926  msg.sender */\n      caller\n        /* \"FundMe.sol\":908:932  payable(msg.sender).call */\n      0xffffffffffffffffffffffffffffffffffffffff\n      and\n        /* \"FundMe.sol\":940:961  address(this).balance */\n      selfbalance\n        /* \"FundMe.sol\":908:966  payable(msg.sender).call{value: address(this).balance}(\"\") */\n      mload(0x40)\n      tag_67\n      swap1\n      tag_68\n      jump\t// in\n    tag_67:\n      0x00\n      mload(0x40)\n      dup1\n      dup4\n      sub\n      dup2\n      dup6\n      dup8\n      gas\n      call\n      swap3\n      pop\n      pop\n      pop\n      returndatasize\n      dup1\n      0x00\n      dup2\n      eq\n      tag_71\n      jumpi\n      mload(0x40)\n      swap2\n      pop\n      and(add(returndatasize, 0x3f), not(0x1f))\n      dup3\n      add\n      0x40\n      mstore\n      returndatasize\n      dup3\n      mstore\n      returndatasize\n      0x00\n      0x20\n      dup5\n      add\n      returndatacopy\n      jump(tag_70)\n    tag_71:\n      0x60\n      swap2\n      pop\n    tag_70:\n      pop\n        /* \"FundMe.sol\":886:966  (bool callSuccess,) = payable(msg.sender).call{value: address(this).balance}(\"\") */\n      pop\n      swap1\n      pop\n        /* \"FundMe.sol\":984:995  callSuccess */\n      dup1\n        /* \"FundMe.sol\":976:1017  require(callSuccess, \"Failed Withdrawal\") */\n      tag_72\n      jumpi\n      mload(0x40)\n      0x08c379a000000000000000000000000000000000000000000000000000000000\n      dup2\n      mstore\n      0x04\n      add\n      tag_73\n      swap1\n      tag_74\n      jump\t// in\n    tag_73:\n      mload(0x40)\n      dup1\n      swap2\n      sub\n      swap1\n      revert\n    tag_72:\n        /* \"FundMe.sol\":689:1024  {... */\n      pop\n        /* \"FundMe.sol\":653:1024  function withdraw() public onlyOwner{... */\n      jump\t// out\n        /* \"FundMe.sol\":283:339  mapping(address => uint256) public addressToAmountFunded */\n    tag_23:\n      mstore(0x20, 0x01)\n      dup1\n      0x00\n      mstore\n      keccak256(0x00, 0x40)\n      0x00\n      swap2\n      pop\n      swap1\n      pop\n      sload\n      dup2\n      jump\t// out\n        /* \"FundMe.sol\":205:247  uint256 public constant MINIMUM_USD = 5e18 */\n    tag_28:\n        /* \"FundMe.sol\":243:247  5e18 */\n      0x4563918244f40000\n        /* \"FundMe.sol\":205:247  uint256 public constant MINIMUM_USD = 5e18 */\n      dup2\n      jump\t// out\n        /* \"FundMe.sol\":346:378  address public immutable i_owner */\n    tag_33:\n      immutable(\"0xb9aa4ff60d3edb7fbc3b53bd780c9274ed80a5ba1a237d38b011edab2b031b4a\")\n      dup2\n      jump\t// out\n        /* \"FundMe.sol\":253:277  address[] public funders */\n    tag_40:\n      0x00\n      dup2\n      dup2\n      sload\n      dup2\n      lt\n      tag_75\n      jumpi\n      0x00\n      dup1\n      revert\n    tag_75:\n      swap1\n      0x00\n      mstore\n      keccak256(0x00, 0x20)\n      add\n      0x00\n      swap2\n      pop\n      sload\n      swap1\n      0x0100\n      exp\n      swap1\n      div\n      0xffffffffffffffffffffffffffffffffffffffff\n      and\n      dup2\n      jump\t// out\n        /* \"EthPriceConverter.sol\":499:716  function getConversionRate(uint256 ethAmount) internal view returns(uint256){... */\n    tag_44:\n        /* \"EthPriceConverter.sol\":567:574  uint256 */\n      0x00\n        /* \"EthPriceConverter.sol\":585:601  uint256 ethPrice */\n      dup1\n        /* \"EthPriceConverter.sol\":604:614  getPrice() */\n      tag_78\n        /* \"EthPriceConverter.sol\":604:612  getPrice */\n      tag_79\n        /* \"EthPriceConverter.sol\":604:614  getPrice() */\n      jump\t// in\n    tag_78:\n        /* \"EthPriceConverter.sol\":585:614  uint256 ethPrice = getPrice() */\n      swap1\n      pop\n        /* \"EthPriceConverter.sol\":624:646  uint256 ethAmountInUsd */\n      0x00\n        /* \"EthPriceConverter.sol\":674:678  1e18 */\n      0x0de0b6b3a7640000\n        /* \"EthPriceConverter.sol\":661:670  ethAmount */\n      dup5\n        /* \"EthPriceConverter.sol\":650:658  ethPrice */\n      dup4\n        /* \"EthPriceConverter.sol\":650:670  ethPrice * ethAmount */\n      tag_80\n      swap2\n      swap1\n      tag_81\n      jump\t// in\n    tag_80:\n        /* \"EthPriceConverter.sol\":649:678  (ethPrice * ethAmount) / 1e18 */\n      tag_82\n      swap2\n      swap1\n      tag_83\n      jump\t// in\n    tag_82:\n        /* \"EthPriceConverter.sol\":624:678  uint256 ethAmountInUsd = (ethPrice * ethAmount) / 1e18 */\n      swap1\n      pop\n        /* \"EthPriceConverter.sol\":695:709  ethAmountInUsd */\n      dup1\n        /* \"EthPriceConverter.sol\":688:709  return ethAmountInUsd */\n      swap3\n      pop\n      pop\n      pop\n        /* \"EthPriceConverter.sol\":499:716  function getConversionRate(uint256 ethAmount) internal view returns(uint256){... */\n      swap2\n      swap1\n      pop\n      jump\t// out\n        /* \"EthPriceConverter.sol\":210:493  function getPrice() internal view returns (uint256){... */\n    tag_79:\n        /* \"EthPriceConverter.sol\":253:260  uint256 */\n      0x00\n        /* \"EthPriceConverter.sol\":271:301  AggregatorV3Interface dataFeed */\n      dup1\n        /* \"EthPriceConverter.sol\":339:381  0x694AA1769357215DE4FAC081bf1f309aDC325306 */\n      0x694aa1769357215de4fac081bf1f309adc325306\n        /* \"EthPriceConverter.sol\":271:391  AggregatorV3Interface dataFeed = AggregatorV3Interface(... */\n      swap1\n      pop\n        /* \"EthPriceConverter.sol\":403:415  int256 price */\n      0x00\n        /* \"EthPriceConverter.sol\":422:430  dataFeed */\n      dup2\n        /* \"EthPriceConverter.sol\":422:446  dataFeed.latestRoundData */\n      0xffffffffffffffffffffffffffffffffffffffff\n      and\n      0xfeaf968c\n        /* \"EthPriceConverter.sol\":422:448  dataFeed.latestRoundData() */\n      mload(0x40)\n      dup2\n      0xffffffff\n      and\n      0xe0\n      shl\n      dup2\n      mstore\n      0x04\n      add\n      0xa0\n      mload(0x40)\n      dup1\n      dup4\n      sub\n      dup2\n      dup7\n      gas\n      staticcall\n      iszero\n      dup1\n      iszero\n      tag_86\n      jumpi\n      returndatasize\n      0x00\n      dup1\n      returndatacopy\n      revert(0x00, returndatasize)\n    tag_86:\n      pop\n      pop\n      pop\n      pop\n      mload(0x40)\n      returndatasize\n      not(0x1f)\n      0x1f\n      dup3\n      add\n      and\n      dup3\n      add\n      dup1\n      0x40\n      mstore\n      pop\n      dup2\n      add\n      swap1\n      tag_87\n      swap2\n      swap1\n      tag_88\n      jump\t// in\n    tag_87:\n        /* \"EthPriceConverter.sol\":401:448  (,int256 price,,,) = dataFeed.latestRoundData() */\n      pop\n      pop\n      pop\n      swap2\n      pop\n      pop\n        /* \"EthPriceConverter.sol\":481:485  1e10 */\n      0x02540be400\n        /* \"EthPriceConverter.sol\":473:478  price */\n      dup2\n        /* \"EthPriceConverter.sol\":473:485  price * 1e10 */\n      tag_89\n      swap2\n      swap1\n      tag_90\n      jump\t// in\n    tag_89:\n        /* \"EthPriceConverter.sol\":458:486  return uint256(price * 1e10) */\n      swap3\n      pop\n      pop\n      pop\n        /* \"EthPriceConverter.sol\":210:493  function getPrice() internal view returns (uint256){... */\n      swap1\n      jump\t// out\n    tag_66:\n      dup3\n      dup1\n      sload\n      dup3\n      dup3\n      sstore\n      swap1\n      0x00\n      mstore\n      keccak256(0x00, 0x20)\n      swap1\n      dup2\n      add\n      swap3\n      dup3\n      iszero\n      tag_91\n      jumpi\n      swap2\n      0x20\n      mul\n      dup3\n      add\n    tag_92:\n      dup3\n      dup2\n      gt\n      iszero\n      tag_93\n      jumpi\n      dup3\n      mload\n      dup3\n      exp(0x0100, 0x00)\n      dup2\n      sload\n      dup2\n      0xffffffffffffffffffffffffffffffffffffffff\n      mul\n      not\n      and\n      swap1\n      dup4\n      0xffffffffffffffffffffffffffffffffffffffff\n      and\n      mul\n      or\n      swap1\n      sstore\n      pop\n      swap2\n      0x20\n      add\n      swap2\n      swap1\n      0x01\n      add\n      swap1\n      jump(tag_92)\n    tag_93:\n    tag_91:\n      pop\n      swap1\n      pop\n      tag_94\n      swap2\n      swap1\n      tag_95\n      jump\t// in\n    tag_94:\n      pop\n      swap1\n      jump\t// out\n    tag_95:\n    tag_96:\n      dup1\n      dup3\n      gt\n      iszero\n      tag_97\n      jumpi\n      0x00\n      dup2\n      0x00\n      swap1\n      sstore\n      pop\n      0x01\n      add\n      jump(tag_96)\n    tag_97:\n      pop\n      swap1\n      jump\t// out\n        /* \"#utility.yul\":88:205   */\n    tag_99:\n        /* \"#utility.yul\":197:198   */\n      0x00\n        /* \"#utility.yul\":194:195   */\n      dup1\n        /* \"#utility.yul\":187:199   */\n      revert\n        /* \"#utility.yul\":334:460   */\n    tag_101:\n        /* \"#utility.yul\":371:378   */\n      0x00\n        /* \"#utility.yul\":411:453   */\n      0xffffffffffffffffffffffffffffffffffffffff\n        /* \"#utility.yul\":404:409   */\n      dup3\n        /* \"#utility.yul\":400:454   */\n      and\n        /* \"#utility.yul\":389:454   */\n      swap1\n      pop\n        /* \"#utility.yul\":334:460   */\n      swap2\n      swap1\n      pop\n      jump\t// out\n        /* \"#utility.yul\":466:562   */\n    tag_102:\n        /* \"#utility.yul\":503:510   */\n      0x00\n        /* \"#utility.yul\":532:556   */\n      tag_133\n        /* \"#utility.yul\":550:555   */\n      dup3\n        /* \"#utility.yul\":532:556   */\n      tag_101\n      jump\t// in\n    tag_133:\n        /* \"#utility.yul\":521:556   */\n      swap1\n      pop\n        /* \"#utility.yul\":466:562   */\n      swap2\n      swap1\n      pop\n      jump\t// out\n        /* \"#utility.yul\":568:690   */\n    tag_103:\n        /* \"#utility.yul\":641:665   */\n      tag_135\n        /* \"#utility.yul\":659:664   */\n      dup2\n        /* \"#utility.yul\":641:665   */\n      tag_102\n      jump\t// in\n    tag_135:\n        /* \"#utility.yul\":634:639   */\n      dup2\n        /* \"#utility.yul\":631:666   */\n      eq\n        /* \"#utility.yul\":621:684   */\n      tag_136\n      jumpi\n        /* \"#utility.yul\":680:681   */\n      0x00\n        /* \"#utility.yul\":677:678   */\n      dup1\n        /* \"#utility.yul\":670:682   */\n      revert\n        /* \"#utility.yul\":621:684   */\n    tag_136:\n        /* \"#utility.yul\":568:690   */\n      pop\n      jump\t// out\n        /* \"#utility.yul\":696:835   */\n    tag_104:\n        /* \"#utility.yul\":742:747   */\n      0x00\n        /* \"#utility.yul\":780:786   */\n      dup2\n        /* \"#utility.yul\":767:787   */\n      calldataload\n        /* \"#utility.yul\":758:787   */\n      swap1\n      pop\n        /* \"#utility.yul\":796:829   */\n      tag_138\n        /* \"#utility.yul\":823:828   */\n      dup2\n        /* \"#utility.yul\":796:829   */\n      tag_103\n      jump\t// in\n    tag_138:\n        /* \"#utility.yul\":696:835   */\n      swap3\n      swap2\n      pop\n      pop\n      jump\t// out\n        /* \"#utility.yul\":841:1170   */\n    tag_22:\n        /* \"#utility.yul\":900:906   */\n      0x00\n        /* \"#utility.yul\":949:951   */\n      0x20\n        /* \"#utility.yul\":937:946   */\n      dup3\n        /* \"#utility.yul\":928:935   */\n      dup5\n        /* \"#utility.yul\":924:947   */\n      sub\n        /* \"#utility.yul\":920:952   */\n      slt\n        /* \"#utility.yul\":917:1036   */\n      iszero\n      tag_140\n      jumpi\n        /* \"#utility.yul\":955:1034   */\n      tag_141\n      tag_99\n      jump\t// in\n    tag_141:\n        /* \"#utility.yul\":917:1036   */\n    tag_140:\n        /* \"#utility.yul\":1075:1076   */\n      0x00\n        /* \"#utility.yul\":1100:1153   */\n      tag_142\n        /* \"#utility.yul\":1145:1152   */\n      dup5\n        /* \"#utility.yul\":1136:1142   */\n      dup3\n        /* \"#utility.yul\":1125:1134   */\n      dup6\n        /* \"#utility.yul\":1121:1143   */\n      add\n        /* \"#utility.yul\":1100:1153   */\n      tag_104\n      jump\t// in\n    tag_142:\n        /* \"#utility.yul\":1090:1153   */\n      swap2\n      pop\n        /* \"#utility.yul\":1046:1163   */\n      pop\n        /* \"#utility.yul\":841:1170   */\n      swap3\n      swap2\n      pop\n      pop\n      jump\t// out\n        /* \"#utility.yul\":1176:1253   */\n    tag_105:\n        /* \"#utility.yul\":1213:1220   */\n      0x00\n        /* \"#utility.yul\":1242:1247   */\n      dup2\n        /* \"#utility.yul\":1231:1247   */\n      swap1\n      pop\n        /* \"#utility.yul\":1176:1253   */\n      swap2\n      swap1\n      pop\n      jump\t// out\n        /* \"#utility.yul\":1259:1377   */\n    tag_106:\n        /* \"#utility.yul\":1346:1370   */\n      tag_145\n        /* \"#utility.yul\":1364:1369   */\n      dup2\n        /* \"#utility.yul\":1346:1370   */\n      tag_105\n      jump\t// in\n    tag_145:\n        /* \"#utility.yul\":1341:1344   */\n      dup3\n        /* \"#utility.yul\":1334:1371   */\n      mstore\n        /* \"#utility.yul\":1259:1377   */\n      pop\n      pop\n      jump\t// out\n        /* \"#utility.yul\":1383:1605   */\n    tag_25:\n        /* \"#utility.yul\":1476:1480   */\n      0x00\n        /* \"#utility.yul\":1514:1516   */\n      0x20\n        /* \"#utility.yul\":1503:1512   */\n      dup3\n        /* \"#utility.yul\":1499:1517   */\n      add\n        /* \"#utility.yul\":1491:1517   */\n      swap1\n      pop\n        /* \"#utility.yul\":1527:1598   */\n      tag_147\n        /* \"#utility.yul\":1595:1596   */\n      0x00\n        /* \"#utility.yul\":1584:1593   */\n      dup4\n        /* \"#utility.yul\":1580:1597   */\n      add\n        /* \"#utility.yul\":1571:1577   */\n      dup5\n        /* \"#utility.yul\":1527:1598   */\n      tag_106\n      jump\t// in\n    tag_147:\n        /* \"#utility.yul\":1383:1605   */\n      swap3\n      swap2\n      pop\n      pop\n      jump\t// out\n        /* \"#utility.yul\":1611:1729   */\n    tag_107:\n        /* \"#utility.yul\":1698:1722   */\n      tag_149\n        /* \"#utility.yul\":1716:1721   */\n      dup2\n        /* \"#utility.yul\":1698:1722   */\n      tag_102\n      jump\t// in\n    tag_149:\n        /* \"#utility.yul\":1693:1696   */\n      dup3\n        /* \"#utility.yul\":1686:1723   */\n      mstore\n        /* \"#utility.yul\":1611:1729   */\n      pop\n      pop\n      jump\t// out\n        /* \"#utility.yul\":1735:1957   */\n    tag_35:\n        /* \"#utility.yul\":1828:1832   */\n      0x00\n        /* \"#utility.yul\":1866:1868   */\n      0x20\n        /* \"#utility.yul\":1855:1864   */\n      dup3\n        /* \"#utility.yul\":1851:1869   */\n      add\n        /* \"#utility.yul\":1843:1869   */\n      swap1\n      pop\n        /* \"#utility.yul\":1879:1950   */\n      tag_151\n        /* \"#utility.yul\":1947:1948   */\n      0x00\n        /* \"#utility.yul\":1936:1945   */\n      dup4\n        /* \"#utility.yul\":1932:1949   */\n      add\n        /* \"#utility.yul\":1923:1929   */\n      dup5\n        /* \"#utility.yul\":1879:1950   */\n      tag_107\n      jump\t// in\n    tag_151:\n        /* \"#utility.yul\":1735:1957   */\n      swap3\n      swap2\n      pop\n      pop\n      jump\t// out\n        /* \"#utility.yul\":1963:2085   */\n    tag_108:\n        /* \"#utility.yul\":2036:2060   */\n      tag_153\n        /* \"#utility.yul\":2054:2059   */\n      dup2\n        /* \"#utility.yul\":2036:2060   */\n      tag_105\n      jump\t// in\n    tag_153:\n        /* \"#utility.yul\":2029:2034   */\n      dup2\n        /* \"#utility.yul\":2026:2061   */\n      eq\n        /* \"#utility.yul\":2016:2079   */\n      tag_154\n      jumpi\n        /* \"#utility.yul\":2075:2076   */\n      0x00\n        /* \"#utility.yul\":2072:2073   */\n      dup1\n        /* \"#utility.yul\":2065:2077   */\n      revert\n        /* \"#utility.yul\":2016:2079   */\n    tag_154:\n        /* \"#utility.yul\":1963:2085   */\n      pop\n      jump\t// out\n        /* \"#utility.yul\":2091:2230   */\n    tag_109:\n        /* \"#utility.yul\":2137:2142   */\n      0x00\n        /* \"#utility.yul\":2175:2181   */\n      dup2\n        /* \"#utility.yul\":2162:2182   */\n      calldataload\n        /* \"#utility.yul\":2153:2182   */\n      swap1\n      pop\n        /* \"#utility.yul\":2191:2224   */\n      tag_156\n        /* \"#utility.yul\":2218:2223   */\n      dup2\n        /* \"#utility.yul\":2191:2224   */\n      tag_108\n      jump\t// in\n    tag_156:\n        /* \"#utility.yul\":2091:2230   */\n      swap3\n      swap2\n      pop\n      pop\n      jump\t// out\n        /* \"#utility.yul\":2236:2565   */\n    tag_39:\n        /* \"#utility.yul\":2295:2301   */\n      0x00\n        /* \"#utility.yul\":2344:2346   */\n      0x20\n        /* \"#utility.yul\":2332:2341   */\n      dup3\n        /* \"#utility.yul\":2323:2330   */\n      dup5\n        /* \"#utility.yul\":2319:2342   */\n      sub\n        /* \"#utility.yul\":2315:2347   */\n      slt\n        /* \"#utility.yul\":2312:2431   */\n      iszero\n      tag_158\n      jumpi\n        /* \"#utility.yul\":2350:2429   */\n      tag_159\n      tag_99\n      jump\t// in\n    tag_159:\n        /* \"#utility.yul\":2312:2431   */\n    tag_158:\n        /* \"#utility.yul\":2470:2471   */\n      0x00\n        /* \"#utility.yul\":2495:2548   */\n      tag_160\n        /* \"#utility.yul\":2540:2547   */\n      dup5\n        /* \"#utility.yul\":2531:2537   */\n      dup3\n        /* \"#utility.yul\":2520:2529   */\n      dup6\n        /* \"#utility.yul\":2516:2538   */\n      add\n        /* \"#utility.yul\":2495:2548   */\n      tag_109\n      jump\t// in\n    tag_160:\n        /* \"#utility.yul\":2485:2548   */\n      swap2\n      pop\n        /* \"#utility.yul\":2441:2558   */\n      pop\n        /* \"#utility.yul\":2236:2565   */\n      swap3\n      swap2\n      pop\n      pop\n      jump\t// out\n        /* \"#utility.yul\":2571:2740   */\n    tag_110:\n        /* \"#utility.yul\":2655:2666   */\n      0x00\n        /* \"#utility.yul\":2689:2695   */\n      dup3\n        /* \"#utility.yul\":2684:2687   */\n      dup3\n        /* \"#utility.yul\":2677:2696   */\n      mstore\n        /* \"#utility.yul\":2729:2733   */\n      0x20\n        /* \"#utility.yul\":2724:2727   */\n      dup3\n        /* \"#utility.yul\":2720:2734   */\n      add\n        /* \"#utility.yul\":2705:2734   */\n      swap1\n      pop\n        /* \"#utility.yul\":2571:2740   */\n      swap3\n      swap2\n      pop\n      pop\n      jump\t// out\n        /* \"#utility.yul\":2746:2909   */\n    tag_111:\n        /* \"#utility.yul\":2886:2901   */\n      0x596f75206e656564206d6f726500000000000000000000000000000000000000\n        /* \"#utility.yul\":2882:2883   */\n      0x00\n        /* \"#utility.yul\":2874:2880   */\n      dup3\n        /* \"#utility.yul\":2870:2884   */\n      add\n        /* \"#utility.yul\":2863:2902   */\n      mstore\n        /* \"#utility.yul\":2746:2909   */\n      pop\n      jump\t// out\n        /* \"#utility.yul\":2915:3281   */\n    tag_112:\n        /* \"#utility.yul\":3057:3060   */\n      0x00\n        /* \"#utility.yul\":3078:3145   */\n      tag_164\n        /* \"#utility.yul\":3142:3144   */\n      0x0d\n        /* \"#utility.yul\":3137:3140   */\n      dup4\n        /* \"#utility.yul\":3078:3145   */\n      tag_110\n      jump\t// in\n    tag_164:\n        /* \"#utility.yul\":3071:3145   */\n      swap2\n      pop\n        /* \"#utility.yul\":3154:3247   */\n      tag_165\n        /* \"#utility.yul\":3243:3246   */\n      dup3\n        /* \"#utility.yul\":3154:3247   */\n      tag_111\n      jump\t// in\n    tag_165:\n        /* \"#utility.yul\":3272:3274   */\n      0x20\n        /* \"#utility.yul\":3267:3270   */\n      dup3\n        /* \"#utility.yul\":3263:3275   */\n      add\n        /* \"#utility.yul\":3256:3275   */\n      swap1\n      pop\n        /* \"#utility.yul\":2915:3281   */\n      swap2\n      swap1\n      pop\n      jump\t// out\n        /* \"#utility.yul\":3287:3706   */\n    tag_47:\n        /* \"#utility.yul\":3453:3457   */\n      0x00\n        /* \"#utility.yul\":3491:3493   */\n      0x20\n        /* \"#utility.yul\":3480:3489   */\n      dup3\n        /* \"#utility.yul\":3476:3494   */\n      add\n        /* \"#utility.yul\":3468:3494   */\n      swap1\n      pop\n        /* \"#utility.yul\":3540:3549   */\n      dup2\n        /* \"#utility.yul\":3534:3538   */\n      dup2\n        /* \"#utility.yul\":3530:3550   */\n      sub\n        /* \"#utility.yul\":3526:3527   */\n      0x00\n        /* \"#utility.yul\":3515:3524   */\n      dup4\n        /* \"#utility.yul\":3511:3528   */\n      add\n        /* \"#utility.yul\":3504:3551   */\n      mstore\n        /* \"#utility.yul\":3568:3699   */\n      tag_167\n        /* \"#utility.yul\":3694:3698   */\n      dup2\n        /* \"#utility.yul\":3568:3699   */\n      tag_112\n      jump\t// in\n    tag_167:\n        /* \"#utility.yul\":3560:3699   */\n      swap1\n      pop\n        /* \"#utility.yul\":3287:3706   */\n      swap2\n      swap1\n      pop\n      jump\t// out\n        /* \"#utility.yul\":3712:3892   */\n    tag_113:\n        /* \"#utility.yul\":3760:3837   */\n      0x4e487b7100000000000000000000000000000000000000000000000000000000\n        /* \"#utility.yul\":3757:3758   */\n      0x00\n        /* \"#utility.yul\":3750:3838   */\n      mstore\n        /* \"#utility.yul\":3857:3861   */\n      0x11\n        /* \"#utility.yul\":3854:3855   */\n      0x04\n        /* \"#utility.yul\":3847:3862   */\n      mstore\n        /* \"#utility.yul\":3881:3885   */\n      0x24\n        /* \"#utility.yul\":3878:3879   */\n      0x00\n        /* \"#utility.yul\":3871:3886   */\n      revert\n        /* \"#utility.yul\":3898:4089   */\n    tag_50:\n        /* \"#utility.yul\":3938:3941   */\n      0x00\n        /* \"#utility.yul\":3957:3977   */\n      tag_170\n        /* \"#utility.yul\":3975:3976   */\n      dup3\n        /* \"#utility.yul\":3957:3977   */\n      tag_105\n      jump\t// in\n    tag_170:\n        /* \"#utility.yul\":3952:3977   */\n      swap2\n      pop\n        /* \"#utility.yul\":3991:4011   */\n      tag_171\n        /* \"#utility.yul\":4009:4010   */\n      dup4\n        /* \"#utility.yul\":3991:4011   */\n      tag_105\n      jump\t// in\n    tag_171:\n        /* \"#utility.yul\":3986:4011   */\n      swap3\n      pop\n        /* \"#utility.yul\":4034:4035   */\n      dup3\n        /* \"#utility.yul\":4031:4032   */\n      dup3\n        /* \"#utility.yul\":4027:4036   */\n      add\n        /* \"#utility.yul\":4020:4036   */\n      swap1\n      pop\n        /* \"#utility.yul\":4055:4058   */\n      dup1\n        /* \"#utility.yul\":4052:4053   */\n      dup3\n        /* \"#utility.yul\":4049:4059   */\n      gt\n        /* \"#utility.yul\":4046:4082   */\n      iszero\n      tag_172\n      jumpi\n        /* \"#utility.yul\":4062:4080   */\n      tag_173\n      tag_113\n      jump\t// in\n    tag_173:\n        /* \"#utility.yul\":4046:4082   */\n    tag_172:\n        /* \"#utility.yul\":3898:4089   */\n      swap3\n      swap2\n      pop\n      pop\n      jump\t// out\n        /* \"#utility.yul\":4095:4275   */\n    tag_59:\n        /* \"#utility.yul\":4143:4220   */\n      0x4e487b7100000000000000000000000000000000000000000000000000000000\n        /* \"#utility.yul\":4140:4141   */\n      0x00\n        /* \"#utility.yul\":4133:4221   */\n      mstore\n        /* \"#utility.yul\":4240:4244   */\n      0x32\n        /* \"#utility.yul\":4237:4238   */\n      0x04\n        /* \"#utility.yul\":4230:4245   */\n      mstore\n        /* \"#utility.yul\":4264:4268   */\n      0x24\n        /* \"#utility.yul\":4261:4262   */\n      0x00\n        /* \"#utility.yul\":4254:4269   */\n      revert\n        /* \"#utility.yul\":4281:4461   */\n    tag_63:\n        /* \"#utility.yul\":4329:4406   */\n      0x4e487b7100000000000000000000000000000000000000000000000000000000\n        /* \"#utility.yul\":4326:4327   */\n      0x00\n        /* \"#utility.yul\":4319:4407   */\n      mstore\n        /* \"#utility.yul\":4426:4430   */\n      0x41\n        /* \"#utility.yul\":4423:4424   */\n      0x04\n        /* \"#utility.yul\":4416:4431   */\n      mstore\n        /* \"#utility.yul\":4450:4454   */\n      0x24\n        /* \"#utility.yul\":4447:4448   */\n      0x00\n        /* \"#utility.yul\":4440:4455   */\n      revert\n        /* \"#utility.yul\":4467:4614   */\n    tag_114:\n        /* \"#utility.yul\":4568:4579   */\n      0x00\n        /* \"#utility.yul\":4605:4608   */\n      dup2\n        /* \"#utility.yul\":4590:4608   */\n      swap1\n      pop\n        /* \"#utility.yul\":4467:4614   */\n      swap3\n      swap2\n      pop\n      pop\n      jump\t// out\n        /* \"#utility.yul\":4620:4734   */\n    tag_115:\n      pop\n      jump\t// out\n        /* \"#utility.yul\":4740:5138   */\n    tag_116:\n        /* \"#utility.yul\":4899:4902   */\n      0x00\n        /* \"#utility.yul\":4920:5003   */\n      tag_179\n        /* \"#utility.yul\":5001:5002   */\n      0x00\n        /* \"#utility.yul\":4996:4999   */\n      dup4\n        /* \"#utility.yul\":4920:5003   */\n      tag_114\n      jump\t// in\n    tag_179:\n        /* \"#utility.yul\":4913:5003   */\n      swap2\n      pop\n        /* \"#utility.yul\":5012:5105   */\n      tag_180\n        /* \"#utility.yul\":5101:5104   */\n      dup3\n        /* \"#utility.yul\":5012:5105   */\n      tag_115\n      jump\t// in\n    tag_180:\n        /* \"#utility.yul\":5130:5131   */\n      0x00\n        /* \"#utility.yul\":5125:5128   */\n      dup3\n        /* \"#utility.yul\":5121:5132   */\n      add\n        /* \"#utility.yul\":5114:5132   */\n      swap1\n      pop\n        /* \"#utility.yul\":4740:5138   */\n      swap2\n      swap1\n      pop\n      jump\t// out\n        /* \"#utility.yul\":5144:5523   */\n    tag_68:\n        /* \"#utility.yul\":5328:5331   */\n      0x00\n        /* \"#utility.yul\":5350:5497   */\n      tag_182\n        /* \"#utility.yul\":5493:5496   */\n      dup3\n        /* \"#utility.yul\":5350:5497   */\n      tag_116\n      jump\t// in\n    tag_182:\n        /* \"#utility.yul\":5343:5497   */\n      swap2\n      pop\n        /* \"#utility.yul\":5514:5517   */\n      dup2\n        /* \"#utility.yul\":5507:5517   */\n      swap1\n      pop\n        /* \"#utility.yul\":5144:5523   */\n      swap2\n      swap1\n      pop\n      jump\t// out\n        /* \"#utility.yul\":5529:5696   */\n    tag_117:\n        /* \"#utility.yul\":5669:5688   */\n      0x4661696c6564205769746864726177616c000000000000000000000000000000\n        /* \"#utility.yul\":5665:5666   */\n      0x00\n        /* \"#utility.yul\":5657:5663   */\n      dup3\n        /* \"#utility.yul\":5653:5667   */\n      add\n        /* \"#utility.yul\":5646:5689   */\n      mstore\n        /* \"#utility.yul\":5529:5696   */\n      pop\n      jump\t// out\n        /* \"#utility.yul\":5702:6068   */\n    tag_118:\n        /* \"#utility.yul\":5844:5847   */\n      0x00\n        /* \"#utility.yul\":5865:5932   */\n      tag_185\n        /* \"#utility.yul\":5929:5931   */\n      0x11\n        /* \"#utility.yul\":5924:5927   */\n      dup4\n        /* \"#utility.yul\":5865:5932   */\n      tag_110\n      jump\t// in\n    tag_185:\n        /* \"#utility.yul\":5858:5932   */\n      swap2\n      pop\n        /* \"#utility.yul\":5941:6034   */\n      tag_186\n        /* \"#utility.yul\":6030:6033   */\n      dup3\n        /* \"#utility.yul\":5941:6034   */\n      tag_117\n      jump\t// in\n    tag_186:\n        /* \"#utility.yul\":6059:6061   */\n      0x20\n        /* \"#utility.yul\":6054:6057   */\n      dup3\n        /* \"#utility.yul\":6050:6062   */\n      add\n        /* \"#utility.yul\":6043:6062   */\n      swap1\n      pop\n        /* \"#utility.yul\":5702:6068   */\n      swap2\n      swap1\n      pop\n      jump\t// out\n        /* \"#utility.yul\":6074:6493   */\n    tag_74:\n        /* \"#utility.yul\":6240:6244   */\n      0x00\n        /* \"#utility.yul\":6278:6280   */\n      0x20\n        /* \"#utility.yul\":6267:6276   */\n      dup3\n        /* \"#utility.yul\":6263:6281   */\n      add\n        /* \"#utility.yul\":6255:6281   */\n      swap1\n      pop\n        /* \"#utility.yul\":6327:6336   */\n      dup2\n        /* \"#utility.yul\":6321:6325   */\n      dup2\n        /* \"#utility.yul\":6317:6337   */\n      sub\n        /* \"#utility.yul\":6313:6314   */\n      0x00\n        /* \"#utility.yul\":6302:6311   */\n      dup4\n        /* \"#utility.yul\":6298:6315   */\n      add\n        /* \"#utility.yul\":6291:6338   */\n      mstore\n        /* \"#utility.yul\":6355:6486   */\n      tag_188\n        /* \"#utility.yul\":6481:6485   */\n      dup2\n        /* \"#utility.yul\":6355:6486   */\n      tag_118\n      jump\t// in\n    tag_188:\n        /* \"#utility.yul\":6347:6486   */\n      swap1\n      pop\n        /* \"#utility.yul\":6074:6493   */\n      swap2\n      swap1\n      pop\n      jump\t// out\n        /* \"#utility.yul\":6499:6909   */\n    tag_81:\n        /* \"#utility.yul\":6539:6546   */\n      0x00\n        /* \"#utility.yul\":6562:6582   */\n      tag_190\n        /* \"#utility.yul\":6580:6581   */\n      dup3\n        /* \"#utility.yul\":6562:6582   */\n      tag_105\n      jump\t// in\n    tag_190:\n        /* \"#utility.yul\":6557:6582   */\n      swap2\n      pop\n        /* \"#utility.yul\":6596:6616   */\n      tag_191\n        /* \"#utility.yul\":6614:6615   */\n      dup4\n        /* \"#utility.yul\":6596:6616   */\n      tag_105\n      jump\t// in\n    tag_191:\n        /* \"#utility.yul\":6591:6616   */\n      swap3\n      pop\n        /* \"#utility.yul\":6651:6652   */\n      dup3\n        /* \"#utility.yul\":6648:6649   */\n      dup3\n        /* \"#utility.yul\":6644:6653   */\n      mul\n        /* \"#utility.yul\":6673:6703   */\n      tag_192\n        /* \"#utility.yul\":6691:6702   */\n      dup2\n        /* \"#utility.yul\":6673:6703   */\n      tag_105\n      jump\t// in\n    tag_192:\n        /* \"#utility.yul\":6662:6703   */\n      swap2\n      pop\n        /* \"#utility.yul\":6852:6853   */\n      dup3\n        /* \"#utility.yul\":6843:6850   */\n      dup3\n        /* \"#utility.yul\":6839:6854   */\n      div\n        /* \"#utility.yul\":6836:6837   */\n      dup5\n        /* \"#utility.yul\":6833:6855   */\n      eq\n        /* \"#utility.yul\":6813:6814   */\n      dup4\n        /* \"#utility.yul\":6806:6815   */\n      iszero\n        /* \"#utility.yul\":6786:6869   */\n      or\n        /* \"#utility.yul\":6763:6902   */\n      tag_193\n      jumpi\n        /* \"#utility.yul\":6882:6900   */\n      tag_194\n      tag_113\n      jump\t// in\n    tag_194:\n        /* \"#utility.yul\":6763:6902   */\n    tag_193:\n        /* \"#utility.yul\":6547:6909   */\n      pop\n        /* \"#utility.yul\":6499:6909   */\n      swap3\n      swap2\n      pop\n      pop\n      jump\t// out\n        /* \"#utility.yul\":6915:7095   */\n    tag_119:\n        /* \"#utility.yul\":6963:7040   */\n      0x4e487b7100000000000000000000000000000000000000000000000000000000\n        /* \"#utility.yul\":6960:6961   */\n      0x00\n        /* \"#utility.yul\":6953:7041   */\n      mstore\n        /* \"#utility.yul\":7060:7064   */\n      0x12\n        /* \"#utility.yul\":7057:7058   */\n      0x04\n        /* \"#utility.yul\":7050:7065   */\n      mstore\n        /* \"#utility.yul\":7084:7088   */\n      0x24\n        /* \"#utility.yul\":7081:7082   */\n      0x00\n        /* \"#utility.yul\":7074:7089   */\n      revert\n        /* \"#utility.yul\":7101:7286   */\n    tag_83:\n        /* \"#utility.yul\":7141:7142   */\n      0x00\n        /* \"#utility.yul\":7158:7178   */\n      tag_197\n        /* \"#utility.yul\":7176:7177   */\n      dup3\n        /* \"#utility.yul\":7158:7178   */\n      tag_105\n      jump\t// in\n    tag_197:\n        /* \"#utility.yul\":7153:7178   */\n      swap2\n      pop\n        /* \"#utility.yul\":7192:7212   */\n      tag_198\n        /* \"#utility.yul\":7210:7211   */\n      dup4\n        /* \"#utility.yul\":7192:7212   */\n      tag_105\n      jump\t// in\n    tag_198:\n        /* \"#utility.yul\":7187:7212   */\n      swap3\n      pop\n        /* \"#utility.yul\":7231:7232   */\n      dup3\n        /* \"#utility.yul\":7221:7256   */\n      tag_199\n      jumpi\n        /* \"#utility.yul\":7236:7254   */\n      tag_200\n      tag_119\n      jump\t// in\n    tag_200:\n        /* \"#utility.yul\":7221:7256   */\n    tag_199:\n        /* \"#utility.yul\":7278:7279   */\n      dup3\n        /* \"#utility.yul\":7275:7276   */\n      dup3\n        /* \"#utility.yul\":7271:7280   */\n      div\n        /* \"#utility.yul\":7266:7280   */\n      swap1\n      pop\n        /* \"#utility.yul\":7101:7286   */\n      swap3\n      swap2\n      pop\n      pop\n      jump\t// out\n        /* \"#utility.yul\":7292:7397   */\n    tag_120:\n        /* \"#utility.yul\":7328:7335   */\n      0x00\n        /* \"#utility.yul\":7368:7390   */\n      0xffffffffffffffffffff\n        /* \"#utility.yul\":7361:7366   */\n      dup3\n        /* \"#utility.yul\":7357:7391   */\n      and\n        /* \"#utility.yul\":7346:7391   */\n      swap1\n      pop\n        /* \"#utility.yul\":7292:7397   */\n      swap2\n      swap1\n      pop\n      jump\t// out\n        /* \"#utility.yul\":7403:7523   */\n    tag_121:\n        /* \"#utility.yul\":7475:7498   */\n      tag_203\n        /* \"#utility.yul\":7492:7497   */\n      dup2\n        /* \"#utility.yul\":7475:7498   */\n      tag_120\n      jump\t// in\n    tag_203:\n        /* \"#utility.yul\":7468:7473   */\n      dup2\n        /* \"#utility.yul\":7465:7499   */\n      eq\n        /* \"#utility.yul\":7455:7517   */\n      tag_204\n      jumpi\n        /* \"#utility.yul\":7513:7514   */\n      0x00\n        /* \"#utility.yul\":7510:7511   */\n      dup1\n        /* \"#utility.yul\":7503:7515   */\n      revert\n        /* \"#utility.yul\":7455:7517   */\n    tag_204:\n        /* \"#utility.yul\":7403:7523   */\n      pop\n      jump\t// out\n        /* \"#utility.yul\":7529:7670   */\n    tag_122:\n        /* \"#utility.yul\":7585:7590   */\n      0x00\n        /* \"#utility.yul\":7616:7622   */\n      dup2\n        /* \"#utility.yul\":7610:7623   */\n      mload\n        /* \"#utility.yul\":7601:7623   */\n      swap1\n      pop\n        /* \"#utility.yul\":7632:7664   */\n      tag_206\n        /* \"#utility.yul\":7658:7663   */\n      dup2\n        /* \"#utility.yul\":7632:7664   */\n      tag_121\n      jump\t// in\n    tag_206:\n        /* \"#utility.yul\":7529:7670   */\n      swap3\n      swap2\n      pop\n      pop\n      jump\t// out\n        /* \"#utility.yul\":7676:7752   */\n    tag_123:\n        /* \"#utility.yul\":7712:7719   */\n      0x00\n        /* \"#utility.yul\":7741:7746   */\n      dup2\n        /* \"#utility.yul\":7730:7746   */\n      swap1\n      pop\n        /* \"#utility.yul\":7676:7752   */\n      swap2\n      swap1\n      pop\n      jump\t// out\n        /* \"#utility.yul\":7758:7878   */\n    tag_124:\n        /* \"#utility.yul\":7830:7853   */\n      tag_209\n        /* \"#utility.yul\":7847:7852   */\n      dup2\n        /* \"#utility.yul\":7830:7853   */\n      tag_123\n      jump\t// in\n    tag_209:\n        /* \"#utility.yul\":7823:7828   */\n      dup2\n        /* \"#utility.yul\":7820:7854   */\n      eq\n        /* \"#utility.yul\":7810:7872   */\n      tag_210\n      jumpi\n        /* \"#utility.yul\":7868:7869   */\n      0x00\n        /* \"#utility.yul\":7865:7866   */\n      dup1\n        /* \"#utility.yul\":7858:7870   */\n      revert\n        /* \"#utility.yul\":7810:7872   */\n    tag_210:\n        /* \"#utility.yul\":7758:7878   */\n      pop\n      jump\t// out\n        /* \"#utility.yul\":7884:8025   */\n    tag_125:\n        /* \"#utility.yul\":7940:7945   */\n      0x00\n        /* \"#utility.yul\":7971:7977   */\n      dup2\n        /* \"#utility.yul\":7965:7978   */\n      mload\n        /* \"#utility.yul\":7956:7978   */\n      swap1\n      pop\n        /* \"#utility.yul\":7987:8019   */\n      tag_212\n        /* \"#utility.yul\":8013:8018   */\n      dup2\n        /* \"#utility.yul\":7987:8019   */\n      tag_124\n      jump\t// in\n    tag_212:\n        /* \"#utility.yul\":7884:8025   */\n      swap3\n      swap2\n      pop\n      pop\n      jump\t// out\n        /* \"#utility.yul\":8031:8174   */\n    tag_126:\n        /* \"#utility.yul\":8088:8093   */\n      0x00\n        /* \"#utility.yul\":8119:8125   */\n      dup2\n        /* \"#utility.yul\":8113:8126   */\n      mload\n        /* \"#utility.yul\":8104:8126   */\n      swap1\n      pop\n        /* \"#utility.yul\":8135:8168   */\n      tag_214\n        /* \"#utility.yul\":8162:8167   */\n      dup2\n        /* \"#utility.yul\":8135:8168   */\n      tag_108\n      jump\t// in\n    tag_214:\n        /* \"#utility.yul\":8031:8174   */\n      swap3\n      swap2\n      pop\n      pop\n      jump\t// out\n        /* \"#utility.yul\":8180:9151   */\n    tag_88:\n        /* \"#utility.yul\":8283:8289   */\n      0x00\n        /* \"#utility.yul\":8291:8297   */\n      dup1\n        /* \"#utility.yul\":8299:8305   */\n      0x00\n        /* \"#utility.yul\":8307:8313   */\n      dup1\n        /* \"#utility.yul\":8315:8321   */\n      0x00\n        /* \"#utility.yul\":8364:8367   */\n      0xa0\n        /* \"#utility.yul\":8352:8361   */\n      dup7\n        /* \"#utility.yul\":8343:8350   */\n      dup9\n        /* \"#utility.yul\":8339:8362   */\n      sub\n        /* \"#utility.yul\":8335:8368   */\n      slt\n        /* \"#utility.yul\":8332:8452   */\n      iszero\n      tag_216\n      jumpi\n        /* \"#utility.yul\":8371:8450   */\n      tag_217\n      tag_99\n      jump\t// in\n    tag_217:\n        /* \"#utility.yul\":8332:8452   */\n    tag_216:\n        /* \"#utility.yul\":8491:8492   */\n      0x00\n        /* \"#utility.yul\":8516:8579   */\n      tag_218\n        /* \"#utility.yul\":8571:8578   */\n      dup9\n        /* \"#utility.yul\":8562:8568   */\n      dup3\n        /* \"#utility.yul\":8551:8560   */\n      dup10\n        /* \"#utility.yul\":8547:8569   */\n      add\n        /* \"#utility.yul\":8516:8579   */\n      tag_122\n      jump\t// in\n    tag_218:\n        /* \"#utility.yul\":8506:8579   */\n      swap6\n      pop\n        /* \"#utility.yul\":8462:8589   */\n      pop\n        /* \"#utility.yul\":8628:8630   */\n      0x20\n        /* \"#utility.yul\":8654:8717   */\n      tag_219\n        /* \"#utility.yul\":8709:8716   */\n      dup9\n        /* \"#utility.yul\":8700:8706   */\n      dup3\n        /* \"#utility.yul\":8689:8698   */\n      dup10\n        /* \"#utility.yul\":8685:8707   */\n      add\n        /* \"#utility.yul\":8654:8717   */\n      tag_125\n      jump\t// in\n    tag_219:\n        /* \"#utility.yul\":8644:8717   */\n      swap5\n      pop\n        /* \"#utility.yul\":8599:8727   */\n      pop\n        /* \"#utility.yul\":8766:8768   */\n      0x40\n        /* \"#utility.yul\":8792:8856   */\n      tag_220\n        /* \"#utility.yul\":8848:8855   */\n      dup9\n        /* \"#utility.yul\":8839:8845   */\n      dup3\n        /* \"#utility.yul\":8828:8837   */\n      dup10\n        /* \"#utility.yul\":8824:8846   */\n      add\n        /* \"#utility.yul\":8792:8856   */\n      tag_126\n      jump\t// in\n    tag_220:\n        /* \"#utility.yul\":8782:8856   */\n      swap4\n      pop\n        /* \"#utility.yul\":8737:8866   */\n      pop\n        /* \"#utility.yul\":8905:8907   */\n      0x60\n        /* \"#utility.yul\":8931:8995   */\n      tag_221\n        /* \"#utility.yul\":8987:8994   */\n      dup9\n        /* \"#utility.yul\":8978:8984   */\n      dup3\n        /* \"#utility.yul\":8967:8976   */\n      dup10\n        /* \"#utility.yul\":8963:8985   */\n      add\n        /* \"#utility.yul\":8931:8995   */\n      tag_126\n      jump\t// in\n    tag_221:\n        /* \"#utility.yul\":8921:8995   */\n      swap3\n      pop\n        /* \"#utility.yul\":8876:9005   */\n      pop\n        /* \"#utility.yul\":9044:9047   */\n      0x80\n        /* \"#utility.yul\":9071:9134   */\n      tag_222\n        /* \"#utility.yul\":9126:9133   */\n      dup9\n        /* \"#utility.yul\":9117:9123   */\n      dup3\n        /* \"#utility.yul\":9106:9115   */\n      dup10\n        /* \"#utility.yul\":9102:9124   */\n      add\n        /* \"#utility.yul\":9071:9134   */\n      tag_122\n      jump\t// in\n    tag_222:\n        /* \"#utility.yul\":9061:9134   */\n      swap2\n      pop\n        /* \"#utility.yul\":9015:9144   */\n      pop\n        /* \"#utility.yul\":8180:9151   */\n      swap3\n      swap6\n      pop\n      swap3\n      swap6\n      swap1\n      swap4\n      pop\n      jump\t// out\n        /* \"#utility.yul\":9157:9713   */\n    tag_90:\n        /* \"#utility.yul\":9196:9203   */\n      0x00\n        /* \"#utility.yul\":9219:9238   */\n      tag_224\n        /* \"#utility.yul\":9236:9237   */\n      dup3\n        /* \"#utility.yul\":9219:9238   */\n      tag_123\n      jump\t// in\n    tag_224:\n        /* \"#utility.yul\":9214:9238   */\n      swap2\n      pop\n        /* \"#utility.yul\":9252:9271   */\n      tag_225\n        /* \"#utility.yul\":9269:9270   */\n      dup4\n        /* \"#utility.yul\":9252:9271   */\n      tag_123\n      jump\t// in\n    tag_225:\n        /* \"#utility.yul\":9247:9271   */\n      swap3\n      pop\n        /* \"#utility.yul\":9306:9307   */\n      dup3\n        /* \"#utility.yul\":9303:9304   */\n      dup3\n        /* \"#utility.yul\":9299:9308   */\n      mul\n        /* \"#utility.yul\":9328:9357   */\n      tag_226\n        /* \"#utility.yul\":9345:9356   */\n      dup2\n        /* \"#utility.yul\":9328:9357   */\n      tag_123\n      jump\t// in\n    tag_226:\n        /* \"#utility.yul\":9317:9357   */\n      swap2\n      pop\n        /* \"#utility.yul\":9415:9481   */\n      0x8000000000000000000000000000000000000000000000000000000000000000\n        /* \"#utility.yul\":9412:9413   */\n      dup5\n        /* \"#utility.yul\":9409:9482   */\n      eq\n        /* \"#utility.yul\":9405:9406   */\n      0x00\n        /* \"#utility.yul\":9402:9403   */\n      dup5\n        /* \"#utility.yul\":9398:9407   */\n      slt\n        /* \"#utility.yul\":9394:9483   */\n      and\n        /* \"#utility.yul\":9391:9506   */\n      iszero\n      tag_227\n      jumpi\n        /* \"#utility.yul\":9486:9504   */\n      tag_228\n      tag_113\n      jump\t// in\n    tag_228:\n        /* \"#utility.yul\":9391:9506   */\n    tag_227:\n        /* \"#utility.yul\":9656:9657   */\n      dup3\n        /* \"#utility.yul\":9647:9654   */\n      dup3\n        /* \"#utility.yul\":9642:9658   */\n      sdiv\n        /* \"#utility.yul\":9639:9640   */\n      dup5\n        /* \"#utility.yul\":9636:9659   */\n      eq\n        /* \"#utility.yul\":9616:9617   */\n      dup4\n        /* \"#utility.yul\":9609:9618   */\n      iszero\n        /* \"#utility.yul\":9589:9673   */\n      or\n        /* \"#utility.yul\":9566:9706   */\n      tag_229\n      jumpi\n        /* \"#utility.yul\":9686:9704   */\n      tag_230\n      tag_113\n      jump\t// in\n    tag_230:\n        /* \"#utility.yul\":9566:9706   */\n    tag_229:\n        /* \"#utility.yul\":9204:9713   */\n      pop\n        /* \"#utility.yul\":9157:9713   */\n      swap3\n      swap2\n      pop\n      pop\n      jump\t// out\n\n    auxdata: 0xa2646970667358221220c723725d75a4617f8aea35207b1298654608c45615397dae2a2f1e80921afe9664736f6c63430008180033\n}\n",
				"bytecode": {
					"linkReferences": {},
					"object": "60a060405234801561000f575f80fd5b503373ffffffffffffffffffffffffffffffffffffffff1660808173ffffffffffffffffffffffffffffffffffffffff1681525050608051610be56100635f395f818161026501526104b10152610be55ff3fe608060405260043610610058575f3560e01c80633ccfd60b146100715780633e47d6f3146100875780636b69a592146100c3578063b60d4288146100ed578063dba6335f146100f7578063dc0d3dff1461012157610067565b366100675761006561015d565b005b61006f61015d565b005b34801561007c575f80fd5b50610085610263565b005b348015610092575f80fd5b506100ad60048036038101906100a891906106ea565b61048e565b6040516100ba919061072d565b60405180910390f35b3480156100ce575f80fd5b506100d76104a3565b6040516100e4919061072d565b60405180910390f35b6100f561015d565b005b348015610102575f80fd5b5061010b6104af565b6040516101189190610755565b60405180910390f35b34801561012c575f80fd5b5061014760048036038101906101429190610798565b6104d3565b6040516101549190610755565b60405180910390f35b674563918244f4000061016f3461050d565b116101af576040517f08c379a00000000000000000000000000000000000000000000000000000000081526004016101a69061081d565b60405180910390fd5b5f33908060018154018082558091505060019003905f5260205f20015f9091909190916101000a81548173ffffffffffffffffffffffffffffffffffffffff021916908373ffffffffffffffffffffffffffffffffffffffff1602179055503460015f3373ffffffffffffffffffffffffffffffffffffffff1673ffffffffffffffffffffffffffffffffffffffff1681526020019081526020015f205f82825461025a9190610868565b92505081905550565b7f000000000000000000000000000000000000000000000000000000000000000073ffffffffffffffffffffffffffffffffffffffff163373ffffffffffffffffffffffffffffffffffffffff16146102e8576040517f30cd747100000000000000000000000000000000000000000000000000000000815260040160405180910390fd5b5f5b5f80549050811015610384575f80828154811061030a5761030961089b565b5b905f5260205f20015f9054906101000a900473ffffffffffffffffffffffffffffffffffffffff1690505f60015f8373ffffffffffffffffffffffffffffffffffffffff1673ffffffffffffffffffffffffffffffffffffffff1681526020019081526020015f20819055505080806001019150506102ea565b505f67ffffffffffffffff81111561039f5761039e6108c8565b5b6040519080825280602002602001820160405280156103cd5781602001602082028036833780820191505090505b505f90805190602001906103e29291906105ea565b505f3373ffffffffffffffffffffffffffffffffffffffff164760405161040890610922565b5f6040518083038185875af1925050503d805f8114610442576040519150601f19603f3d011682016040523d82523d5f602084013e610447565b606091505b505090508061048b576040517f08c379a000000000000000000000000000000000000000000000000000000000815260040161048290610980565b60405180910390fd5b50565b6001602052805f5260405f205f915090505481565b674563918244f4000081565b7f000000000000000000000000000000000000000000000000000000000000000081565b5f81815481106104e1575f80fd5b905f5260205f20015f915054906101000a900473ffffffffffffffffffffffffffffffffffffffff1681565b5f80610517610545565b90505f670de0b6b3a7640000848361052f919061099e565b6105399190610a0c565b90508092505050919050565b5f8073694aa1769357215de4fac081bf1f309adc32530690505f8173ffffffffffffffffffffffffffffffffffffffff1663feaf968c6040518163ffffffff1660e01b815260040160a060405180830381865afa1580156105a8573d5f803e3d5ffd5b505050506040513d601f19601f820116820180604052508101906105cc9190610ac2565b5050509150506402540be400816105e39190610b39565b9250505090565b828054828255905f5260205f20908101928215610660579160200282015b8281111561065f578251825f6101000a81548173ffffffffffffffffffffffffffffffffffffffff021916908373ffffffffffffffffffffffffffffffffffffffff16021790555091602001919060010190610608565b5b50905061066d9190610671565b5090565b5b80821115610688575f815f905550600101610672565b5090565b5f80fd5b5f73ffffffffffffffffffffffffffffffffffffffff82169050919050565b5f6106b982610690565b9050919050565b6106c9816106af565b81146106d3575f80fd5b50565b5f813590506106e4816106c0565b92915050565b5f602082840312156106ff576106fe61068c565b5b5f61070c848285016106d6565b91505092915050565b5f819050919050565b61072781610715565b82525050565b5f6020820190506107405f83018461071e565b92915050565b61074f816106af565b82525050565b5f6020820190506107685f830184610746565b92915050565b61077781610715565b8114610781575f80fd5b50565b5f813590506107928161076e565b92915050565b5f602082840312156107ad576107ac61068c565b5b5f6107ba84828501610784565b91505092915050565b5f82825260208201905092915050565b7f596f75206e656564206d6f7265000000000000000000000000000000000000005f82015250565b5f610807600d836107c3565b9150610812826107d3565b602082019050919050565b5f6020820190508181035f830152610834816107fb565b9050919050565b7f4e487b71000000000000000000000000000000000000000000000000000000005f52601160045260245ffd5b5f61087282610715565b915061087d83610715565b92508282019050808211156108955761089461083b565b5b92915050565b7f4e487b71000000000000000000000000000000000000000000000000000000005f52603260045260245ffd5b7f4e487b71000000000000000000000000000000000000000000000000000000005f52604160045260245ffd5b5f81905092915050565b50565b5f61090d5f836108f5565b9150610918826108ff565b5f82019050919050565b5f61092c82610902565b9150819050919050565b7f4661696c6564205769746864726177616c0000000000000000000000000000005f82015250565b5f61096a6011836107c3565b915061097582610936565b602082019050919050565b5f6020820190508181035f8301526109978161095e565b9050919050565b5f6109a882610715565b91506109b383610715565b92508282026109c181610715565b915082820484148315176109d8576109d761083b565b5b5092915050565b7f4e487b71000000000000000000000000000000000000000000000000000000005f52601260045260245ffd5b5f610a1682610715565b9150610a2183610715565b925082610a3157610a306109df565b5b828204905092915050565b5f69ffffffffffffffffffff82169050919050565b610a5a81610a3c565b8114610a64575f80fd5b50565b5f81519050610a7581610a51565b92915050565b5f819050919050565b610a8d81610a7b565b8114610a97575f80fd5b50565b5f81519050610aa881610a84565b92915050565b5f81519050610abc8161076e565b92915050565b5f805f805f60a08688031215610adb57610ada61068c565b5b5f610ae888828901610a67565b9550506020610af988828901610a9a565b9450506040610b0a88828901610aae565b9350506060610b1b88828901610aae565b9250506080610b2c88828901610a67565b9150509295509295909350565b5f610b4382610a7b565b9150610b4e83610a7b565b9250828202610b5c81610a7b565b91507f800000000000000000000000000000000000000000000000000000000000000084145f84121615610b9357610b9261083b565b5b8282058414831517610ba857610ba761083b565b5b509291505056fea2646970667358221220c723725d75a4617f8aea35207b1298654608c45615397dae2a2f1e80921afe9664736f6c63430008180033",
					"opcodes": "PUSH1 0xA0 PUSH1 0x40 MSTORE CALLVALUE DUP1 ISZERO PUSH2 0xF JUMPI PUSH0 DUP1 REVERT JUMPDEST POP CALLER PUSH20 0xFFFFFFFFFFFFFFFFFFFFFFFFFFFFFFFFFFFFFFFF AND PUSH1 0x80 DUP2 PUSH20 0xFFFFFFFFFFFFFFFFFFFFFFFFFFFFFFFFFFFFFFFF AND DUP2 MSTORE POP POP PUSH1 0x80 MLOAD PUSH2 0xBE5 PUSH2 0x63 PUSH0 CODECOPY PUSH0 DUP2 DUP2 PUSH2 0x265 ADD MSTORE PUSH2 0x4B1 ADD MSTORE PUSH2 0xBE5 PUSH0 RETURN INVALID PUSH1 0x80 PUSH1 0x40 MSTORE PUSH1 0x4 CALLDATASIZE LT PUSH2 0x58 JUMPI PUSH0 CALLDATALOAD PUSH1 0xE0 SHR DUP1 PUSH4 0x3CCFD60B EQ PUSH2 0x71 JUMPI DUP1 PUSH4 0x3E47D6F3 EQ PUSH2 0x87 JUMPI DUP1 PUSH4 0x6B69A592 EQ PUSH2 0xC3 JUMPI DUP1 PUSH4 0xB60D4288 EQ PUSH2 0xED JUMPI DUP1 PUSH4 0xDBA6335F EQ PUSH2 0xF7 JUMPI DUP1 PUSH4 0xDC0D3DFF EQ PUSH2 0x121 JUMPI PUSH2 0x67 JUMP JUMPDEST CALLDATASIZE PUSH2 0x67 JUMPI PUSH2 0x65 PUSH2 0x15D JUMP JUMPDEST STOP JUMPDEST PUSH2 0x6F PUSH2 0x15D JUMP JUMPDEST STOP JUMPDEST CALLVALUE DUP1 ISZERO PUSH2 0x7C JUMPI PUSH0 DUP1 REVERT JUMPDEST POP PUSH2 0x85 PUSH2 0x263 JUMP JUMPDEST STOP JUMPDEST CALLVALUE DUP1 ISZERO PUSH2 0x92 JUMPI PUSH0 DUP1 REVERT JUMPDEST POP PUSH2 0xAD PUSH1 0x4 DUP1 CALLDATASIZE SUB DUP2 ADD SWAP1 PUSH2 0xA8 SWAP2 SWAP1 PUSH2 0x6EA JUMP JUMPDEST PUSH2 0x48E JUMP JUMPDEST PUSH1 0x40 MLOAD PUSH2 0xBA SWAP2 SWAP1 PUSH2 0x72D JUMP JUMPDEST PUSH1 0x40 MLOAD DUP1 SWAP2 SUB SWAP1 RETURN JUMPDEST CALLVALUE DUP1 ISZERO PUSH2 0xCE JUMPI PUSH0 DUP1 REVERT JUMPDEST POP PUSH2 0xD7 PUSH2 0x4A3 JUMP JUMPDEST PUSH1 0x40 MLOAD PUSH2 0xE4 SWAP2 SWAP1 PUSH2 0x72D JUMP JUMPDEST PUSH1 0x40 MLOAD DUP1 SWAP2 SUB SWAP1 RETURN JUMPDEST PUSH2 0xF5 PUSH2 0x15D JUMP JUMPDEST STOP JUMPDEST CALLVALUE DUP1 ISZERO PUSH2 0x102 JUMPI PUSH0 DUP1 REVERT JUMPDEST POP PUSH2 0x10B PUSH2 0x4AF JUMP JUMPDEST PUSH1 0x40 MLOAD PUSH2 0x118 SWAP2 SWAP1 PUSH2 0x755 JUMP JUMPDEST PUSH1 0x40 MLOAD DUP1 SWAP2 SUB SWAP1 RETURN JUMPDEST CALLVALUE DUP1 ISZERO PUSH2 0x12C JUMPI PUSH0 DUP1 REVERT JUMPDEST POP PUSH2 0x147 PUSH1 0x4 DUP1 CALLDATASIZE SUB DUP2 ADD SWAP1 PUSH2 0x142 SWAP2 SWAP1 PUSH2 0x798 JUMP JUMPDEST PUSH2 0x4D3 JUMP JUMPDEST PUSH1 0x40 MLOAD PUSH2 0x154 SWAP2 SWAP1 PUSH2 0x755 JUMP JUMPDEST PUSH1 0x40 MLOAD DUP1 SWAP2 SUB SWAP1 RETURN JUMPDEST PUSH8 0x4563918244F40000 PUSH2 0x16F CALLVALUE PUSH2 0x50D JUMP JUMPDEST GT PUSH2 0x1AF JUMPI PUSH1 0x40 MLOAD PUSH32 0x8C379A000000000000000000000000000000000000000000000000000000000 DUP2 MSTORE PUSH1 0x4 ADD PUSH2 0x1A6 SWAP1 PUSH2 0x81D JUMP JUMPDEST PUSH1 0x40 MLOAD DUP1 SWAP2 SUB SWAP1 REVERT JUMPDEST PUSH0 CALLER SWAP1 DUP1 PUSH1 0x1 DUP2 SLOAD ADD DUP1 DUP3 SSTORE DUP1 SWAP2 POP POP PUSH1 0x1 SWAP1 SUB SWAP1 PUSH0 MSTORE PUSH1 0x20 PUSH0 KECCAK256 ADD PUSH0 SWAP1 SWAP2 SWAP1 SWAP2 SWAP1 SWAP2 PUSH2 0x100 EXP DUP2 SLOAD DUP2 PUSH20 0xFFFFFFFFFFFFFFFFFFFFFFFFFFFFFFFFFFFFFFFF MUL NOT AND SWAP1 DUP4 PUSH20 0xFFFFFFFFFFFFFFFFFFFFFFFFFFFFFFFFFFFFFFFF AND MUL OR SWAP1 SSTORE POP CALLVALUE PUSH1 0x1 PUSH0 CALLER PUSH20 0xFFFFFFFFFFFFFFFFFFFFFFFFFFFFFFFFFFFFFFFF AND PUSH20 0xFFFFFFFFFFFFFFFFFFFFFFFFFFFFFFFFFFFFFFFF AND DUP2 MSTORE PUSH1 0x20 ADD SWAP1 DUP2 MSTORE PUSH1 0x20 ADD PUSH0 KECCAK256 PUSH0 DUP3 DUP3 SLOAD PUSH2 0x25A SWAP2 SWAP1 PUSH2 0x868 JUMP JUMPDEST SWAP3 POP POP DUP2 SWAP1 SSTORE POP JUMP JUMPDEST PUSH32 0x0 PUSH20 0xFFFFFFFFFFFFFFFFFFFFFFFFFFFFFFFFFFFFFFFF AND CALLER PUSH20 0xFFFFFFFFFFFFFFFFFFFFFFFFFFFFFFFFFFFFFFFF AND EQ PUSH2 0x2E8 JUMPI PUSH1 0x40 MLOAD PUSH32 0x30CD747100000000000000000000000000000000000000000000000000000000 DUP2 MSTORE PUSH1 0x4 ADD PUSH1 0x40 MLOAD DUP1 SWAP2 SUB SWAP1 REVERT JUMPDEST PUSH0 JUMPDEST PUSH0 DUP1 SLOAD SWAP1 POP DUP2 LT ISZERO PUSH2 0x384 JUMPI PUSH0 DUP1 DUP3 DUP2 SLOAD DUP2 LT PUSH2 0x30A JUMPI PUSH2 0x309 PUSH2 0x89B JUMP JUMPDEST JUMPDEST SWAP1 PUSH0 MSTORE PUSH1 0x20 PUSH0 KECCAK256 ADD PUSH0 SWAP1 SLOAD SWAP1 PUSH2 0x100 EXP SWAP1 DIV PUSH20 0xFFFFFFFFFFFFFFFFFFFFFFFFFFFFFFFFFFFFFFFF AND SWAP1 POP PUSH0 PUSH1 0x1 PUSH0 DUP4 PUSH20 0xFFFFFFFFFFFFFFFFFFFFFFFFFFFFFFFFFFFFFFFF AND PUSH20 0xFFFFFFFFFFFFFFFFFFFFFFFFFFFFFFFFFFFFFFFF AND DUP2 MSTORE PUSH1 0x20 ADD SWAP1 DUP2 MSTORE PUSH1 0x20 ADD PUSH0 KECCAK256 DUP2 SWAP1 SSTORE POP POP DUP1 DUP1 PUSH1 0x1 ADD SWAP2 POP POP PUSH2 0x2EA JUMP JUMPDEST POP PUSH0 PUSH8 0xFFFFFFFFFFFFFFFF DUP2 GT ISZERO PUSH2 0x39F JUMPI PUSH2 0x39E PUSH2 0x8C8 JUMP JUMPDEST JUMPDEST PUSH1 0x40 MLOAD SWAP1 DUP1 DUP3 MSTORE DUP1 PUSH1 0x20 MUL PUSH1 0x20 ADD DUP3 ADD PUSH1 0x40 MSTORE DUP1 ISZERO PUSH2 0x3CD JUMPI DUP2 PUSH1 0x20 ADD PUSH1 0x20 DUP3 MUL DUP1 CALLDATASIZE DUP4 CALLDATACOPY DUP1 DUP3 ADD SWAP2 POP POP SWAP1 POP JUMPDEST POP PUSH0 SWAP1 DUP1 MLOAD SWAP1 PUSH1 0x20 ADD SWAP1 PUSH2 0x3E2 SWAP3 SWAP2 SWAP1 PUSH2 0x5EA JUMP JUMPDEST POP PUSH0 CALLER PUSH20 0xFFFFFFFFFFFFFFFFFFFFFFFFFFFFFFFFFFFFFFFF AND SELFBALANCE PUSH1 0x40 MLOAD PUSH2 0x408 SWAP1 PUSH2 0x922 JUMP JUMPDEST PUSH0 PUSH1 0x40 MLOAD DUP1 DUP4 SUB DUP2 DUP6 DUP8 GAS CALL SWAP3 POP POP POP RETURNDATASIZE DUP1 PUSH0 DUP2 EQ PUSH2 0x442 JUMPI PUSH1 0x40 MLOAD SWAP2 POP PUSH1 0x1F NOT PUSH1 0x3F RETURNDATASIZE ADD AND DUP3 ADD PUSH1 0x40 MSTORE RETURNDATASIZE DUP3 MSTORE RETURNDATASIZE PUSH0 PUSH1 0x20 DUP5 ADD RETURNDATACOPY PUSH2 0x447 JUMP JUMPDEST PUSH1 0x60 SWAP2 POP JUMPDEST POP POP SWAP1 POP DUP1 PUSH2 0x48B JUMPI PUSH1 0x40 MLOAD PUSH32 0x8C379A000000000000000000000000000000000000000000000000000000000 DUP2 MSTORE PUSH1 0x4 ADD PUSH2 0x482 SWAP1 PUSH2 0x980 JUMP JUMPDEST PUSH1 0x40 MLOAD DUP1 SWAP2 SUB SWAP1 REVERT JUMPDEST POP JUMP JUMPDEST PUSH1 0x1 PUSH1 0x20 MSTORE DUP1 PUSH0 MSTORE PUSH1 0x40 PUSH0 KECCAK256 PUSH0 SWAP2 POP SWAP1 POP SLOAD DUP2 JUMP JUMPDEST PUSH8 0x4563918244F40000 DUP2 JUMP JUMPDEST PUSH32 0x0 DUP2 JUMP JUMPDEST PUSH0 DUP2 DUP2 SLOAD DUP2 LT PUSH2 0x4E1 JUMPI PUSH0 DUP1 REVERT JUMPDEST SWAP1 PUSH0 MSTORE PUSH1 0x20 PUSH0 KECCAK256 ADD PUSH0 SWAP2 POP SLOAD SWAP1 PUSH2 0x100 EXP SWAP1 DIV PUSH20 0xFFFFFFFFFFFFFFFFFFFFFFFFFFFFFFFFFFFFFFFF AND DUP2 JUMP JUMPDEST PUSH0 DUP1 PUSH2 0x517 PUSH2 0x545 JUMP JUMPDEST SWAP1 POP PUSH0 PUSH8 0xDE0B6B3A7640000 DUP5 DUP4 PUSH2 0x52F SWAP2 SWAP1 PUSH2 0x99E JUMP JUMPDEST PUSH2 0x539 SWAP2 SWAP1 PUSH2 0xA0C JUMP JUMPDEST SWAP1 POP DUP1 SWAP3 POP POP POP SWAP2 SWAP1 POP JUMP JUMPDEST PUSH0 DUP1 PUSH20 0x694AA1769357215DE4FAC081BF1F309ADC325306 SWAP1 POP PUSH0 DUP2 PUSH20 0xFFFFFFFFFFFFFFFFFFFFFFFFFFFFFFFFFFFFFFFF AND PUSH4 0xFEAF968C PUSH1 0x40 MLOAD DUP2 PUSH4 0xFFFFFFFF AND PUSH1 0xE0 SHL DUP2 MSTORE PUSH1 0x4 ADD PUSH1 0xA0 PUSH1 0x40 MLOAD DUP1 DUP4 SUB DUP2 DUP7 GAS STATICCALL ISZERO DUP1 ISZERO PUSH2 0x5A8 JUMPI RETURNDATASIZE PUSH0 DUP1 RETURNDATACOPY RETURNDATASIZE PUSH0 REVERT JUMPDEST POP POP POP POP PUSH1 0x40 MLOAD RETURNDATASIZE PUSH1 0x1F NOT PUSH1 0x1F DUP3 ADD AND DUP3 ADD DUP1 PUSH1 0x40 MSTORE POP DUP2 ADD SWAP1 PUSH2 0x5CC SWAP2 SWAP1 PUSH2 0xAC2 JUMP JUMPDEST POP POP POP SWAP2 POP POP PUSH5 0x2540BE400 DUP2 PUSH2 0x5E3 SWAP2 SWAP1 PUSH2 0xB39 JUMP JUMPDEST SWAP3 POP POP POP SWAP1 JUMP JUMPDEST DUP3 DUP1 SLOAD DUP3 DUP3 SSTORE SWAP1 PUSH0 MSTORE PUSH1 0x20 PUSH0 KECCAK256 SWAP1 DUP2 ADD SWAP3 DUP3 ISZERO PUSH2 0x660 JUMPI SWAP2 PUSH1 0x20 MUL DUP3 ADD JUMPDEST DUP3 DUP2 GT ISZERO PUSH2 0x65F JUMPI DUP3 MLOAD DUP3 PUSH0 PUSH2 0x100 EXP DUP2 SLOAD DUP2 PUSH20 0xFFFFFFFFFFFFFFFFFFFFFFFFFFFFFFFFFFFFFFFF MUL NOT AND SWAP1 DUP4 PUSH20 0xFFFFFFFFFFFFFFFFFFFFFFFFFFFFFFFFFFFFFFFF AND MUL OR SWAP1 SSTORE POP SWAP2 PUSH1 0x20 ADD SWAP2 SWAP1 PUSH1 0x1 ADD SWAP1 PUSH2 0x608 JUMP JUMPDEST JUMPDEST POP SWAP1 POP PUSH2 0x66D SWAP2 SWAP1 PUSH2 0x671 JUMP JUMPDEST POP SWAP1 JUMP JUMPDEST JUMPDEST DUP1 DUP3 GT ISZERO PUSH2 0x688 JUMPI PUSH0 DUP2 PUSH0 SWAP1 SSTORE POP PUSH1 0x1 ADD PUSH2 0x672 JUMP JUMPDEST POP SWAP1 JUMP JUMPDEST PUSH0 DUP1 REVERT JUMPDEST PUSH0 PUSH20 0xFFFFFFFFFFFFFFFFFFFFFFFFFFFFFFFFFFFFFFFF DUP3 AND SWAP1 POP SWAP2 SWAP1 POP JUMP JUMPDEST PUSH0 PUSH2 0x6B9 DUP3 PUSH2 0x690 JUMP JUMPDEST SWAP1 POP SWAP2 SWAP1 POP JUMP JUMPDEST PUSH2 0x6C9 DUP2 PUSH2 0x6AF JUMP JUMPDEST DUP2 EQ PUSH2 0x6D3 JUMPI PUSH0 DUP1 REVERT JUMPDEST POP JUMP JUMPDEST PUSH0 DUP2 CALLDATALOAD SWAP1 POP PUSH2 0x6E4 DUP2 PUSH2 0x6C0 JUMP JUMPDEST SWAP3 SWAP2 POP POP JUMP JUMPDEST PUSH0 PUSH1 0x20 DUP3 DUP5 SUB SLT ISZERO PUSH2 0x6FF JUMPI PUSH2 0x6FE PUSH2 0x68C JUMP JUMPDEST JUMPDEST PUSH0 PUSH2 0x70C DUP5 DUP3 DUP6 ADD PUSH2 0x6D6 JUMP JUMPDEST SWAP2 POP POP SWAP3 SWAP2 POP POP JUMP JUMPDEST PUSH0 DUP2 SWAP1 POP SWAP2 SWAP1 POP JUMP JUMPDEST PUSH2 0x727 DUP2 PUSH2 0x715 JUMP JUMPDEST DUP3 MSTORE POP POP JUMP JUMPDEST PUSH0 PUSH1 0x20 DUP3 ADD SWAP1 POP PUSH2 0x740 PUSH0 DUP4 ADD DUP5 PUSH2 0x71E JUMP JUMPDEST SWAP3 SWAP2 POP POP JUMP JUMPDEST PUSH2 0x74F DUP2 PUSH2 0x6AF JUMP JUMPDEST DUP3 MSTORE POP POP JUMP JUMPDEST PUSH0 PUSH1 0x20 DUP3 ADD SWAP1 POP PUSH2 0x768 PUSH0 DUP4 ADD DUP5 PUSH2 0x746 JUMP JUMPDEST SWAP3 SWAP2 POP POP JUMP JUMPDEST PUSH2 0x777 DUP2 PUSH2 0x715 JUMP JUMPDEST DUP2 EQ PUSH2 0x781 JUMPI PUSH0 DUP1 REVERT JUMPDEST POP JUMP JUMPDEST PUSH0 DUP2 CALLDATALOAD SWAP1 POP PUSH2 0x792 DUP2 PUSH2 0x76E JUMP JUMPDEST SWAP3 SWAP2 POP POP JUMP JUMPDEST PUSH0 PUSH1 0x20 DUP3 DUP5 SUB SLT ISZERO PUSH2 0x7AD JUMPI PUSH2 0x7AC PUSH2 0x68C JUMP JUMPDEST JUMPDEST PUSH0 PUSH2 0x7BA DUP5 DUP3 DUP6 ADD PUSH2 0x784 JUMP JUMPDEST SWAP2 POP POP SWAP3 SWAP2 POP POP JUMP JUMPDEST PUSH0 DUP3 DUP3 MSTORE PUSH1 0x20 DUP3 ADD SWAP1 POP SWAP3 SWAP2 POP POP JUMP JUMPDEST PUSH32 0x596F75206E656564206D6F726500000000000000000000000000000000000000 PUSH0 DUP3 ADD MSTORE POP JUMP JUMPDEST PUSH0 PUSH2 0x807 PUSH1 0xD DUP4 PUSH2 0x7C3 JUMP JUMPDEST SWAP2 POP PUSH2 0x812 DUP3 PUSH2 0x7D3 JUMP JUMPDEST PUSH1 0x20 DUP3 ADD SWAP1 POP SWAP2 SWAP1 POP JUMP JUMPDEST PUSH0 PUSH1 0x20 DUP3 ADD SWAP1 POP DUP2 DUP2 SUB PUSH0 DUP4 ADD MSTORE PUSH2 0x834 DUP2 PUSH2 0x7FB JUMP JUMPDEST SWAP1 POP SWAP2 SWAP1 POP JUMP JUMPDEST PUSH32 0x4E487B7100000000000000000000000000000000000000000000000000000000 PUSH0 MSTORE PUSH1 0x11 PUSH1 0x4 MSTORE PUSH1 0x24 PUSH0 REVERT JUMPDEST PUSH0 PUSH2 0x872 DUP3 PUSH2 0x715 JUMP JUMPDEST SWAP2 POP PUSH2 0x87D DUP4 PUSH2 0x715 JUMP JUMPDEST SWAP3 POP DUP3 DUP3 ADD SWAP1 POP DUP1 DUP3 GT ISZERO PUSH2 0x895 JUMPI PUSH2 0x894 PUSH2 0x83B JUMP JUMPDEST JUMPDEST SWAP3 SWAP2 POP POP JUMP JUMPDEST PUSH32 0x4E487B7100000000000000000000000000000000000000000000000000000000 PUSH0 MSTORE PUSH1 0x32 PUSH1 0x4 MSTORE PUSH1 0x24 PUSH0 REVERT JUMPDEST PUSH32 0x4E487B7100000000000000000000000000000000000000000000000000000000 PUSH0 MSTORE PUSH1 0x41 PUSH1 0x4 MSTORE PUSH1 0x24 PUSH0 REVERT JUMPDEST PUSH0 DUP2 SWAP1 POP SWAP3 SWAP2 POP POP JUMP JUMPDEST POP JUMP JUMPDEST PUSH0 PUSH2 0x90D PUSH0 DUP4 PUSH2 0x8F5 JUMP JUMPDEST SWAP2 POP PUSH2 0x918 DUP3 PUSH2 0x8FF JUMP JUMPDEST PUSH0 DUP3 ADD SWAP1 POP SWAP2 SWAP1 POP JUMP JUMPDEST PUSH0 PUSH2 0x92C DUP3 PUSH2 0x902 JUMP JUMPDEST SWAP2 POP DUP2 SWAP1 POP SWAP2 SWAP1 POP JUMP JUMPDEST PUSH32 0x4661696C6564205769746864726177616C000000000000000000000000000000 PUSH0 DUP3 ADD MSTORE POP JUMP JUMPDEST PUSH0 PUSH2 0x96A PUSH1 0x11 DUP4 PUSH2 0x7C3 JUMP JUMPDEST SWAP2 POP PUSH2 0x975 DUP3 PUSH2 0x936 JUMP JUMPDEST PUSH1 0x20 DUP3 ADD SWAP1 POP SWAP2 SWAP1 POP JUMP JUMPDEST PUSH0 PUSH1 0x20 DUP3 ADD SWAP1 POP DUP2 DUP2 SUB PUSH0 DUP4 ADD MSTORE PUSH2 0x997 DUP2 PUSH2 0x95E JUMP JUMPDEST SWAP1 POP SWAP2 SWAP1 POP JUMP JUMPDEST PUSH0 PUSH2 0x9A8 DUP3 PUSH2 0x715 JUMP JUMPDEST SWAP2 POP PUSH2 0x9B3 DUP4 PUSH2 0x715 JUMP JUMPDEST SWAP3 POP DUP3 DUP3 MUL PUSH2 0x9C1 DUP2 PUSH2 0x715 JUMP JUMPDEST SWAP2 POP DUP3 DUP3 DIV DUP5 EQ DUP4 ISZERO OR PUSH2 0x9D8 JUMPI PUSH2 0x9D7 PUSH2 0x83B JUMP JUMPDEST JUMPDEST POP SWAP3 SWAP2 POP POP JUMP JUMPDEST PUSH32 0x4E487B7100000000000000000000000000000000000000000000000000000000 PUSH0 MSTORE PUSH1 0x12 PUSH1 0x4 MSTORE PUSH1 0x24 PUSH0 REVERT JUMPDEST PUSH0 PUSH2 0xA16 DUP3 PUSH2 0x715 JUMP JUMPDEST SWAP2 POP PUSH2 0xA21 DUP4 PUSH2 0x715 JUMP JUMPDEST SWAP3 POP DUP3 PUSH2 0xA31 JUMPI PUSH2 0xA30 PUSH2 0x9DF JUMP JUMPDEST JUMPDEST DUP3 DUP3 DIV SWAP1 POP SWAP3 SWAP2 POP POP JUMP JUMPDEST PUSH0 PUSH10 0xFFFFFFFFFFFFFFFFFFFF DUP3 AND SWAP1 POP SWAP2 SWAP1 POP JUMP JUMPDEST PUSH2 0xA5A DUP2 PUSH2 0xA3C JUMP JUMPDEST DUP2 EQ PUSH2 0xA64 JUMPI PUSH0 DUP1 REVERT JUMPDEST POP JUMP JUMPDEST PUSH0 DUP2 MLOAD SWAP1 POP PUSH2 0xA75 DUP2 PUSH2 0xA51 JUMP JUMPDEST SWAP3 SWAP2 POP POP JUMP JUMPDEST PUSH0 DUP2 SWAP1 POP SWAP2 SWAP1 POP JUMP JUMPDEST PUSH2 0xA8D DUP2 PUSH2 0xA7B JUMP JUMPDEST DUP2 EQ PUSH2 0xA97 JUMPI PUSH0 DUP1 REVERT JUMPDEST POP JUMP JUMPDEST PUSH0 DUP2 MLOAD SWAP1 POP PUSH2 0xAA8 DUP2 PUSH2 0xA84 JUMP JUMPDEST SWAP3 SWAP2 POP POP JUMP JUMPDEST PUSH0 DUP2 MLOAD SWAP1 POP PUSH2 0xABC DUP2 PUSH2 0x76E JUMP JUMPDEST SWAP3 SWAP2 POP POP JUMP JUMPDEST PUSH0 DUP1 PUSH0 DUP1 PUSH0 PUSH1 0xA0 DUP7 DUP9 SUB SLT ISZERO PUSH2 0xADB JUMPI PUSH2 0xADA PUSH2 0x68C JUMP JUMPDEST JUMPDEST PUSH0 PUSH2 0xAE8 DUP9 DUP3 DUP10 ADD PUSH2 0xA67 JUMP JUMPDEST SWAP6 POP POP PUSH1 0x20 PUSH2 0xAF9 DUP9 DUP3 DUP10 ADD PUSH2 0xA9A JUMP JUMPDEST SWAP5 POP POP PUSH1 0x40 PUSH2 0xB0A DUP9 DUP3 DUP10 ADD PUSH2 0xAAE JUMP JUMPDEST SWAP4 POP POP PUSH1 0x60 PUSH2 0xB1B DUP9 DUP3 DUP10 ADD PUSH2 0xAAE JUMP JUMPDEST SWAP3 POP POP PUSH1 0x80 PUSH2 0xB2C DUP9 DUP3 DUP10 ADD PUSH2 0xA67 JUMP JUMPDEST SWAP2 POP POP SWAP3 SWAP6 POP SWAP3 SWAP6 SWAP1 SWAP4 POP JUMP JUMPDEST PUSH0 PUSH2 0xB43 DUP3 PUSH2 0xA7B JUMP JUMPDEST SWAP2 POP PUSH2 0xB4E DUP4 PUSH2 0xA7B JUMP JUMPDEST SWAP3 POP DUP3 DUP3 MUL PUSH2 0xB5C DUP2 PUSH2 0xA7B JUMP JUMPDEST SWAP2 POP PUSH32 0x8000000000000000000000000000000000000000000000000000000000000000 DUP5 EQ PUSH0 DUP5 SLT AND ISZERO PUSH2 0xB93 JUMPI PUSH2 0xB92 PUSH2 0x83B JUMP JUMPDEST JUMPDEST DUP3 DUP3 SDIV DUP5 EQ DUP4 ISZERO OR PUSH2 0xBA8 JUMPI PUSH2 0xBA7 PUSH2 0x83B JUMP JUMPDEST JUMPDEST POP SWAP3 SWAP2 POP POP JUMP INVALID LOG2 PUSH5 0x6970667358 0x22 SLT KECCAK256 0xC7 0x23 PUSH19 0x5D75A4617F8AEA35207B1298654608C4561539 PUSH30 0xAE2A2F1E80921AFE9664736F6C6343000818003300000000000000000000 "
				},
				"gasEstimates": {
					"creation": {
						"codeDepositCost": "609000",
						"executionCost": "infinite",
						"totalCost": "infinite"
					},
					"external": {
						"": "infinite",
						"MINIMUM_USD()": "347",
						"addressToAmountFunded(address)": "2802",
						"fund()": "infinite",
						"funders(uint256)": "5031",
						"i_owner()": "infinite",
						"withdraw()": "infinite"
					}
				},
				"methodIdentifiers": {
					"MINIMUM_USD()": "6b69a592",
					"addressToAmountFunded(address)": "3e47d6f3",
					"fund()": "b60d4288",
					"funders(uint256)": "dc0d3dff",
					"i_owner()": "dba6335f",
					"withdraw()": "3ccfd60b"
				}
			},
			"storageLayout": {
				"storage": [
					{
						"astId": 115,
						"contract": "FundMe.sol:FundMe",
						"label": "funders",
						"offset": 0,
						"slot": "0",
						"type": "t_array(t_address)dyn_storage"
					},
					{
						"astId": 119,
						"contract": "FundMe.sol:FundMe",
						"label": "addressToAmountFunded",
						"offset": 0,
						"slot": "1",
						"type": "t_mapping(t_address,t_uint256)"
					}
				],
				"types": {
					"t_address": {
						"encoding": "inplace",
						"label": "address",
						"numberOfBytes": "20"
					},
					"t_array(t_address)dyn_storage": {
						"base": "t_address",
						"encoding": "dynamic_array",
						"label": "address[]",
						"numberOfBytes": "32"
					},
					"t_mapping(t_address,t_uint256)": {
						"encoding": "mapping",
						"key": "t_address",
						"label": "mapping(address => uint256)",
						"numberOfBytes": "32",
						"value": "t_uint256"
					},
					"t_uint256": {
						"encoding": "inplace",
						"label": "uint256",
						"numberOfBytes": "32"
					}
				}
			},
			"userdoc": {
				"kind": "user",
				"methods": {},
				"version": 1
			}
		}
	}
}